{
  "contractName": "BankDeposit",
  "abi": [
    {
      "anonymous": false,
      "inputs": [
        {
          "indexed": false,
          "internalType": "address",
          "name": "investor",
          "type": "address"
        },
        {
          "indexed": false,
          "internalType": "uint256",
          "name": "amount",
          "type": "uint256"
        }
      ],
      "name": "Invest",
      "type": "event"
    },
    {
      "anonymous": false,
      "inputs": [
        {
          "indexed": false,
          "internalType": "address",
          "name": "investor",
          "type": "address"
        },
        {
          "indexed": false,
          "internalType": "uint256",
          "name": "amount",
          "type": "uint256"
        }
      ],
      "name": "Withdraw",
      "type": "event"
    },
    {
      "inputs": [
        {
          "internalType": "address",
          "name": "",
          "type": "address"
        }
      ],
      "name": "allPercentWithdraw",
      "outputs": [
        {
          "internalType": "uint256",
          "name": "",
          "type": "uint256"
        }
      ],
      "stateMutability": "view",
      "type": "function",
      "constant": true
    },
    {
      "inputs": [
        {
          "internalType": "address",
          "name": "",
          "type": "address"
        }
      ],
      "name": "balance",
      "outputs": [
        {
          "internalType": "uint256",
          "name": "",
          "type": "uint256"
        }
      ],
      "stateMutability": "view",
      "type": "function",
      "constant": true
    },
    {
      "inputs": [
        {
          "internalType": "address",
          "name": "",
          "type": "address"
        }
      ],
      "name": "percentWithdraw",
      "outputs": [
        {
          "internalType": "uint256",
          "name": "",
          "type": "uint256"
        }
      ],
      "stateMutability": "view",
      "type": "function",
      "constant": true
    },
    {
      "inputs": [],
      "name": "stepTime",
      "outputs": [
        {
          "internalType": "uint256",
          "name": "",
          "type": "uint256"
        }
      ],
      "stateMutability": "view",
      "type": "function",
      "constant": true
    },
    {
      "inputs": [
        {
          "internalType": "address",
          "name": "",
          "type": "address"
        }
      ],
      "name": "time",
      "outputs": [
        {
          "internalType": "uint256",
          "name": "",
          "type": "uint256"
        }
      ],
      "stateMutability": "view",
      "type": "function",
      "constant": true
    },
    {
      "inputs": [
        {
          "internalType": "address",
          "name": "",
          "type": "address"
        }
      ],
      "name": "userDeposit",
      "outputs": [
        {
          "internalType": "uint256",
          "name": "",
          "type": "uint256"
        }
      ],
      "stateMutability": "view",
      "type": "function",
      "constant": true
    },
    {
      "inputs": [],
      "name": "bankAccount",
      "outputs": [],
      "stateMutability": "payable",
      "type": "function",
      "payable": true
    },
    {
      "inputs": [],
      "name": "collectPercent",
      "outputs": [],
      "stateMutability": "nonpayable",
      "type": "function"
    },
    {
      "inputs": [],
      "name": "deposit",
      "outputs": [],
      "stateMutability": "payable",
      "type": "function",
      "payable": true
    },
    {
      "inputs": [],
      "name": "percentRate",
      "outputs": [
        {
          "internalType": "uint256",
          "name": "",
          "type": "uint256"
        }
      ],
      "stateMutability": "view",
      "type": "function",
      "constant": true
    },
    {
      "inputs": [],
      "name": "payoutAmount",
      "outputs": [
        {
          "internalType": "uint256",
          "name": "",
          "type": "uint256"
        }
      ],
      "stateMutability": "view",
      "type": "function",
      "constant": true
    },
    {
      "inputs": [],
      "name": "returnDeposite",
      "outputs": [],
      "stateMutability": "nonpayable",
      "type": "function"
    }
  ],
  "bytecode": "0x608060405260b460055534801561001557600080fd5b506111ac806100256000396000f3fe6080604052600436106100a75760003560e01c80638090114f116100645780638090114f146101af5780638e444660146101da578063d0e30db0146101f1578063d1260edd146101fb578063e3d670d714610238578063f488fdd014610275576100a7565b80631cd01e3a146100ac578063377a0f53146100c35780634883c329146100cd5780636b46c8c31461010a5780637960eff8146101355780637c67a3e214610172575b600080fd5b3480156100b857600080fd5b506100c16102a0565b005b6100cb6106de565b005b3480156100d957600080fd5b506100f460048036038101906100ef9190610e52565b6106f3565b6040516101019190610e98565b60405180910390f35b34801561011657600080fd5b5061011f61070b565b60405161012c9190610e98565b60405180910390f35b34801561014157600080fd5b5061015c60048036038101906101579190610e52565b610857565b6040516101699190610e98565b60405180910390f35b34801561017e57600080fd5b5061019960048036038101906101949190610e52565b61086f565b6040516101a69190610e98565b60405180910390f35b3480156101bb57600080fd5b506101c4610887565b6040516101d19190610e98565b60405180910390f35b3480156101e657600080fd5b506101ef610999565b005b6101f9610af6565b005b34801561020757600080fd5b50610222600480360381019061021d9190610e52565b610d08565b60405161022f9190610e98565b60405180910390f35b34801561024457600080fd5b5061025f600480360381019061025a9190610e52565b610d20565b60405161026c9190610e98565b60405180910390f35b34801561028157600080fd5b5061028a610d38565b6040516102979190610e98565b60405180910390f35b6000600160003373ffffffffffffffffffffffffffffffffffffffff1673ffffffffffffffffffffffffffffffffffffffff1681526020019081526020016000205411610322576040517f08c379a000000000000000000000000000000000000000000000000000000000815260040161031990610f10565b60405180910390fd5b610376600554600260003373ffffffffffffffffffffffffffffffffffffffff1673ffffffffffffffffffffffffffffffffffffffff16815260200190815260200160002054610d3e90919063ffffffff16565b4210156103b8576040517f08c379a00000000000000000000000000000000000000000000000000000000081526004016103af90610f7c565b60405180910390fd5b600460003373ffffffffffffffffffffffffffffffffffffffff1673ffffffffffffffffffffffffffffffffffffffff1681526020019081526020016000205461044b6002600160003373ffffffffffffffffffffffffffffffffffffffff1673ffffffffffffffffffffffffffffffffffffffff16815260200190815260200160002054610d6a90919063ffffffff16565b11610524576000600160003373ffffffffffffffffffffffffffffffffffffffff1673ffffffffffffffffffffffffffffffffffffffff168152602001908152602001600020819055506000600260003373ffffffffffffffffffffffffffffffffffffffff1673ffffffffffffffffffffffffffffffffffffffff168152602001908152602001600020819055506000600360003373ffffffffffffffffffffffffffffffffffffffff1673ffffffffffffffffffffffffffffffffffffffff168152602001908152602001600020819055506106dc565b600061052e61070b565b905061058281600360003373ffffffffffffffffffffffffffffffffffffffff1673ffffffffffffffffffffffffffffffffffffffff16815260200190815260200160002054610d3e90919063ffffffff16565b600360003373ffffffffffffffffffffffffffffffffffffffff1673ffffffffffffffffffffffffffffffffffffffff1681526020019081526020016000208190555061061781600460003373ffffffffffffffffffffffffffffffffffffffff1673ffffffffffffffffffffffffffffffffffffffff16815260200190815260200160002054610d3e90919063ffffffff16565b600460003373ffffffffffffffffffffffffffffffffffffffff1673ffffffffffffffffffffffffffffffffffffffff168152602001908152602001600020819055503373ffffffffffffffffffffffffffffffffffffffff166108fc829081150290604051600060405180830381858888f193505050501580156106a0573d6000803e3d6000fd5b507f884edad9ce6fa2440d8a54cc123490eb96d2768479d49ff9c7366125a942436433826040516106d2929190610fab565b60405180910390a1505b565b66038d7ea4c6800034116106f157600080fd5b565b60046020528060005260406000206000915090505481565b600080610716610887565b90506000610780600554610772600260003373ffffffffffffffffffffffffffffffffffffffff1673ffffffffffffffffffffffffffffffffffffffff1681526020019081526020016000205442610db290919063ffffffff16565b610dd990919063ffffffff16565b905060006107e9836107db6064600160003373ffffffffffffffffffffffffffffffffffffffff1673ffffffffffffffffffffffffffffffffffffffff16815260200190815260200160002054610dd990919063ffffffff16565b610d6a90919063ffffffff16565b905061084f600360003373ffffffffffffffffffffffffffffffffffffffff1673ffffffffffffffffffffffffffffffffffffffff168152602001908152602001600020546108418484610d6a90919063ffffffff16565b610db290919063ffffffff16565b935050505090565b60036020528060005260406000206000915090505481565b60026020528060005260406000206000915090505481565b60006801a055690d9db80000600160003373ffffffffffffffffffffffffffffffffffffffff1673ffffffffffffffffffffffffffffffffffffffff16815260200190815260200160002054106108e15760099050610996565b6801158e460913d00000600160003373ffffffffffffffffffffffffffffffffffffffff1673ffffffffffffffffffffffffffffffffffffffff16815260200190815260200160002054106109395760089050610996565b678ac7230489e80000600160003373ffffffffffffffffffffffffffffffffffffffff1673ffffffffffffffffffffffffffffffffffffffff1681526020019081526020016000205411156109915760079050610996565b600590505b90565b6000600160003373ffffffffffffffffffffffffffffffffffffffff1673ffffffffffffffffffffffffffffffffffffffff1681526020019081526020016000205490506000600160003373ffffffffffffffffffffffffffffffffffffffff1673ffffffffffffffffffffffffffffffffffffffff168152602001908152602001600020819055506000600260003373ffffffffffffffffffffffffffffffffffffffff1673ffffffffffffffffffffffffffffffffffffffff168152602001908152602001600020819055506000600360003373ffffffffffffffffffffffffffffffffffffffff1673ffffffffffffffffffffffffffffffffffffffff168152602001908152602001600020819055503373ffffffffffffffffffffffffffffffffffffffff166108fc829081150290604051600060405180830381858888f19350505050158015610af2573d6000803e3d6000fd5b5050565b6000341115610d06576000600160003373ffffffffffffffffffffffffffffffffffffffff1673ffffffffffffffffffffffffffffffffffffffff16815260200190815260200160002054118015610ba05750610b9d600554600260003373ffffffffffffffffffffffffffffffffffffffff1673ffffffffffffffffffffffffffffffffffffffff16815260200190815260200160002054610d3e90919063ffffffff16565b42115b15610bf357610bad6102a0565b6000600360003373ffffffffffffffffffffffffffffffffffffffff1673ffffffffffffffffffffffffffffffffffffffff168152602001908152602001600020819055505b610c4534600160003373ffffffffffffffffffffffffffffffffffffffff1673ffffffffffffffffffffffffffffffffffffffff16815260200190815260200160002054610d3e90919063ffffffff16565b600160003373ffffffffffffffffffffffffffffffffffffffff1673ffffffffffffffffffffffffffffffffffffffff1681526020019081526020016000208190555042600260003373ffffffffffffffffffffffffffffffffffffffff1673ffffffffffffffffffffffffffffffffffffffff168152602001908152602001600020819055507fd90d253a9de34d2fdd5a75ae49ea17fcb43af32fc8ea08cc6d2341991dd3872e3334604051610cfd929190610fab565b60405180910390a15b565b60006020528060005260406000206000915090505481565b60016020528060005260406000206000915090505481565b60055481565b6000808284610d4d9190611003565b905083811015610d6057610d5f611059565b5b8091505092915050565b6000808303610d7c5760009050610dac565b60008284610d8a9190611088565b9050828482610d999190611111565b14610da757610da6611059565b5b809150505b92915050565b600082821115610dc557610dc4611059565b5b8183610dd19190611142565b905092915050565b60008183610de79190611111565b905092915050565b600080fd5b600073ffffffffffffffffffffffffffffffffffffffff82169050919050565b6000610e1f82610df4565b9050919050565b610e2f81610e14565b8114610e3a57600080fd5b50565b600081359050610e4c81610e26565b92915050565b600060208284031215610e6857610e67610def565b5b6000610e7684828501610e3d565b91505092915050565b6000819050919050565b610e9281610e7f565b82525050565b6000602082019050610ead6000830184610e89565b92915050565b600082825260208201905092915050565b7f436c69656e74206e6f7420666f756e6400000000000000000000000000000000600082015250565b6000610efa601083610eb3565b9150610f0582610ec4565b602082019050919050565b60006020820190508181036000830152610f2981610eed565b9050919050565b7f546865207061796f7574207265717565737420697320746f6f20666173740000600082015250565b6000610f66601e83610eb3565b9150610f7182610f30565b602082019050919050565b60006020820190508181036000830152610f9581610f59565b9050919050565b610fa581610e14565b82525050565b6000604082019050610fc06000830185610f9c565b610fcd6020830184610e89565b9392505050565b7f4e487b7100000000000000000000000000000000000000000000000000000000600052601160045260246000fd5b600061100e82610e7f565b915061101983610e7f565b9250827fffffffffffffffffffffffffffffffffffffffffffffffffffffffffffffffff0382111561104e5761104d610fd4565b5b828201905092915050565b7f4e487b7100000000000000000000000000000000000000000000000000000000600052600160045260246000fd5b600061109382610e7f565b915061109e83610e7f565b9250817fffffffffffffffffffffffffffffffffffffffffffffffffffffffffffffffff04831182151516156110d7576110d6610fd4565b5b828202905092915050565b7f4e487b7100000000000000000000000000000000000000000000000000000000600052601260045260246000fd5b600061111c82610e7f565b915061112783610e7f565b925082611137576111366110e2565b5b828204905092915050565b600061114d82610e7f565b915061115883610e7f565b92508282101561116b5761116a610fd4565b5b82820390509291505056fea26469706673582212202dabf9fc13f8ef410279fdcaf1fb37edc09c7a1914d7ca762bd803c624fb110d64736f6c634300080d0033",
  "immutableReferences": {},
  "source": "// SPDX-License-Identifier: MIT\npragma solidity >=0.4.22 <0.9.0;\n\nimport \"./SafeMath.sol\";\n\ncontract BankDeposit {\n    using SafeMath for uint256;\n    mapping(address => uint256) public userDeposit;\n    mapping(address => uint256) public balance;\n    mapping(address => uint256) public time;\n    mapping(address => uint256) public percentWithdraw;\n    mapping(address => uint256) public allPercentWithdraw;\n    uint256 public stepTime = 0.05 hours;\n\n    event Invest(address investor, uint256 amount);\n    event Withdraw(address investor, uint256 amount);\n\n    modifier userExist() {\n        require(balance[msg.sender] > 0, \"Client not found\");\n        _;\n    }\n\n    modifier checkTime() {\n        require(\n            block.timestamp >= time[msg.sender].add(stepTime),\n            \"The payout request is too fast\"\n        );\n        _;\n    }\n\n    function bankAccount() public payable {\n        require(msg.value > 0.001 ether);\n    }\n\n    function collectPercent() public userExist checkTime {\n        if (balance[msg.sender].mul(2) <= allPercentWithdraw[msg.sender]) {\n            balance[msg.sender] = 0;\n            time[msg.sender] = 0;\n            percentWithdraw[msg.sender] = 0;\n        } else {\n            uint256 payout = payoutAmount();\n            percentWithdraw[msg.sender] = percentWithdraw[msg.sender].add(\n                payout\n            );\n            allPercentWithdraw[msg.sender] = allPercentWithdraw[msg.sender].add(\n                payout\n            );\n            payable(msg.sender).transfer(payout);\n            emit Withdraw(msg.sender, payout);\n        }\n    }\n\n    function deposit() public payable {\n        if (msg.value > 0) {\n            if (\n                balance[msg.sender] > 0 &&\n                block.timestamp > time[msg.sender].add(stepTime)\n            ) {\n                collectPercent();\n                percentWithdraw[msg.sender] = 0;\n            }\n            balance[msg.sender] = balance[msg.sender].add(msg.value);\n            time[msg.sender] = block.timestamp;\n            emit Invest(msg.sender, msg.value);\n        }\n    }\n\n    function percentRate() public view returns (uint256) {\n        if (balance[msg.sender] >= 30 ether) {\n            return 9;\n        }\n        if (balance[msg.sender] >= 20 ether) {\n            return 8;\n        }\n        if (balance[msg.sender] > 10 ether) {\n            return 7;\n        }\n        return 5;\n    }\n\n    function payoutAmount() public view returns (uint256) {\n        uint256 percent = percentRate();\n        uint256 different = block.timestamp.sub(time[msg.sender]).div(stepTime);\n        uint256 rate = balance[msg.sender].div(100).mul(percent);\n        return rate.mul(different).sub(percentWithdraw[msg.sender]);\n    }\n\n    function returnDeposite() public {\n        uint256 withdrawalAmount = balance[msg.sender];\n        balance[msg.sender] = 0;\n        time[msg.sender] = 0;\n        percentWithdraw[msg.sender] = 0;\n        payable(msg.sender).transfer(withdrawalAmount);\n    }\n}\n",
  "sourcePath": "/home/misha/blockchain/eth/week_one/SimpleFinance/contracts/BankDeposit.sol",
  "compiler": {
    "name": "solc",
    "version": "0.8.13+commit.abaa5c0e.Emscripten.clang"
  },
  "schemaVersion": "3.4.7",
  "updatedAt": "2022-04-20T15:36:21.461Z",
  "networkType": "ethereum",
  "devdoc": {
    "kind": "dev",
    "methods": {},
    "version": 1
  },
  "userdoc": {
    "kind": "user",
    "methods": {},
    "version": 1
  }
}