{
  "contractName": "Donation",
  "abi": [
    {
      "inputs": [],
      "stateMutability": "nonpayable",
      "type": "constructor"
    },
    {
      "inputs": [
        {
          "internalType": "uint256",
          "name": "",
          "type": "uint256"
        }
      ],
      "name": "donators",
      "outputs": [
        {
          "internalType": "address",
          "name": "",
          "type": "address"
        }
      ],
      "stateMutability": "view",
      "type": "function",
      "constant": true
    },
    {
      "inputs": [],
      "name": "owner",
      "outputs": [
        {
          "internalType": "address payable",
          "name": "",
          "type": "address"
        }
      ],
      "stateMutability": "view",
      "type": "function",
      "constant": true
    },
    {
      "inputs": [],
      "name": "gatherDonation",
      "outputs": [],
      "stateMutability": "payable",
      "type": "function",
      "payable": true
    },
    {
      "inputs": [],
      "name": "transferToOwner",
      "outputs": [],
      "stateMutability": "nonpayable",
      "type": "function"
    },
    {
      "inputs": [],
      "name": "getDonators",
      "outputs": [
        {
          "internalType": "address[]",
          "name": "",
          "type": "address[]"
        }
      ],
      "stateMutability": "view",
      "type": "function",
      "constant": true
    }
  ],
  "bytecode": "0x608060405234801561001057600080fd5b50336000806101000a81548173ffffffffffffffffffffffffffffffffffffffff021916908373ffffffffffffffffffffffffffffffffffffffff160217905550610543806100606000396000f3fe60806040526004361061004a5760003560e01c806306883ad31461004f5780632d90ae94146100595780638da5cb5b14610070578063ac62f5661461009b578063bf1482fa146100d8575b600080fd5b610057610103565b005b34801561006557600080fd5b5061006e61017b565b005b34801561007c57600080fd5b5061008561023c565b604051610092919061036e565b60405180910390f35b3480156100a757600080fd5b506100c260048036038101906100bd91906103c4565b610260565b6040516100cf9190610412565b60405180910390f35b3480156100e457600080fd5b506100ed61029f565b6040516100fa91906104eb565b60405180910390f35b66038d7ea4c68000341161011657600080fd5b6001339080600181540180825580915050600190039060005260206000200160009091909190916101000a81548173ffffffffffffffffffffffffffffffffffffffff021916908373ffffffffffffffffffffffffffffffffffffffff160217905550565b60008054906101000a900473ffffffffffffffffffffffffffffffffffffffff1673ffffffffffffffffffffffffffffffffffffffff163373ffffffffffffffffffffffffffffffffffffffff16146101d357600080fd5b60008054906101000a900473ffffffffffffffffffffffffffffffffffffffff1673ffffffffffffffffffffffffffffffffffffffff166108fc479081150290604051600060405180830381858888f19350505050158015610239573d6000803e3d6000fd5b50565b60008054906101000a900473ffffffffffffffffffffffffffffffffffffffff1681565b6001818154811061027057600080fd5b906000526020600020016000915054906101000a900473ffffffffffffffffffffffffffffffffffffffff1681565b6060600180548060200260200160405190810160405280929190818152602001828054801561032357602002820191906000526020600020905b8160009054906101000a900473ffffffffffffffffffffffffffffffffffffffff1673ffffffffffffffffffffffffffffffffffffffff16815260200190600101908083116102d9575b5050505050905090565b600073ffffffffffffffffffffffffffffffffffffffff82169050919050565b60006103588261032d565b9050919050565b6103688161034d565b82525050565b6000602082019050610383600083018461035f565b92915050565b600080fd5b6000819050919050565b6103a18161038e565b81146103ac57600080fd5b50565b6000813590506103be81610398565b92915050565b6000602082840312156103da576103d9610389565b5b60006103e8848285016103af565b91505092915050565b60006103fc8261032d565b9050919050565b61040c816103f1565b82525050565b60006020820190506104276000830184610403565b92915050565b600081519050919050565b600082825260208201905092915050565b6000819050602082019050919050565b610462816103f1565b82525050565b60006104748383610459565b60208301905092915050565b6000602082019050919050565b60006104988261042d565b6104a28185610438565b93506104ad83610449565b8060005b838110156104de5781516104c58882610468565b97506104d083610480565b9250506001810190506104b1565b5085935050505092915050565b60006020820190508181036000830152610505818461048d565b90509291505056fea2646970667358221220c51aa9b17d9281c6c70be79075cd6eb624b6c2d6196083d9a2935dc9d46a8c9c64736f6c634300080d0033",
  "immutableReferences": {},
  "source": "// SPDX-License-Identifier: MIT\npragma solidity >=0.4.22 <0.9.0;\n\ncontract Donation {\n    address payable public owner;\n    address[] public donators;\n\n    constructor() {\n        owner = payable(msg.sender);\n    }\n\n    function gatherDonation() public payable {\n        require(msg.value > 0.001 ether);\n        donators.push(msg.sender);\n    }\n\n    function transferToOwner() external {\n        require(msg.sender == owner);\n        owner.transfer(address(this).balance);\n    }\n\n    function getDonators() public view returns (address[] memory) {\n        return donators;\n    }\n}\n",
  "sourcePath": "/home/misha/blockchain/eth/week_one/SimpleFinance/contracts/Donation.sol",
  "compiler": {
    "name": "solc",
    "version": "0.8.13+commit.abaa5c0e.Emscripten.clang"
  },
  "schemaVersion": "3.4.7",
  "updatedAt": "2022-04-20T14:43:45.066Z",
  "networkType": "ethereum",
  "devdoc": {
    "kind": "dev",
    "methods": {},
    "version": 1
  },
  "userdoc": {
    "kind": "user",
    "methods": {},
    "version": 1
  }
}