{
  "contractName": "Insurance",
  "abi": [
    {
      "inputs": [],
      "stateMutability": "nonpayable",
      "type": "constructor"
    },
    {
      "anonymous": false,
      "inputs": [
        {
          "indexed": false,
          "internalType": "uint256",
          "name": "id",
          "type": "uint256"
        },
        {
          "indexed": false,
          "internalType": "string",
          "name": "testName",
          "type": "string"
        },
        {
          "indexed": false,
          "internalType": "string",
          "name": "date",
          "type": "string"
        },
        {
          "indexed": false,
          "internalType": "uint256",
          "name": "price",
          "type": "uint256"
        }
      ],
      "name": "recordCreated",
      "type": "event"
    },
    {
      "anonymous": false,
      "inputs": [
        {
          "indexed": false,
          "internalType": "uint256",
          "name": "id",
          "type": "uint256"
        },
        {
          "indexed": false,
          "internalType": "string",
          "name": "testName",
          "type": "string"
        },
        {
          "indexed": false,
          "internalType": "string",
          "name": "date",
          "type": "string"
        },
        {
          "indexed": false,
          "internalType": "uint256",
          "name": "price",
          "type": "uint256"
        }
      ],
      "name": "recordSigned",
      "type": "event"
    },
    {
      "inputs": [
        {
          "internalType": "uint256",
          "name": "",
          "type": "uint256"
        }
      ],
      "name": "allRecord",
      "outputs": [
        {
          "internalType": "address",
          "name": "addr",
          "type": "address"
        },
        {
          "internalType": "uint256",
          "name": "id",
          "type": "uint256"
        },
        {
          "internalType": "string",
          "name": "name",
          "type": "string"
        },
        {
          "internalType": "string",
          "name": "date",
          "type": "string"
        },
        {
          "internalType": "uint256",
          "name": "price",
          "type": "uint256"
        },
        {
          "internalType": "bool",
          "name": "isValue",
          "type": "bool"
        },
        {
          "internalType": "uint256",
          "name": "signatureCount",
          "type": "uint256"
        }
      ],
      "stateMutability": "view",
      "type": "function",
      "constant": true
    },
    {
      "inputs": [],
      "name": "hospital",
      "outputs": [
        {
          "internalType": "address payable",
          "name": "",
          "type": "address"
        }
      ],
      "stateMutability": "view",
      "type": "function",
      "constant": true
    },
    {
      "inputs": [],
      "name": "insurer",
      "outputs": [
        {
          "internalType": "address payable",
          "name": "",
          "type": "address"
        }
      ],
      "stateMutability": "view",
      "type": "function",
      "constant": true
    },
    {
      "inputs": [
        {
          "internalType": "uint256",
          "name": "",
          "type": "uint256"
        }
      ],
      "name": "recordsArr",
      "outputs": [
        {
          "internalType": "uint256",
          "name": "",
          "type": "uint256"
        }
      ],
      "stateMutability": "view",
      "type": "function",
      "constant": true
    },
    {
      "inputs": [
        {
          "internalType": "uint256",
          "name": "id",
          "type": "uint256"
        },
        {
          "internalType": "string",
          "name": "name",
          "type": "string"
        },
        {
          "internalType": "string",
          "name": "date",
          "type": "string"
        },
        {
          "internalType": "uint256",
          "name": "price",
          "type": "uint256"
        }
      ],
      "name": "newRecord",
      "outputs": [],
      "stateMutability": "nonpayable",
      "type": "function"
    },
    {
      "inputs": [
        {
          "internalType": "uint256",
          "name": "id",
          "type": "uint256"
        }
      ],
      "name": "signRecord",
      "outputs": [],
      "stateMutability": "payable",
      "type": "function",
      "payable": true
    }
  ],
  "bytecode": "0x608060405234801561001057600080fd5b50731158e4032f4d183bff14d452288ac7043adacff26000806101000a81548173ffffffffffffffffffffffffffffffffffffffff021916908373ffffffffffffffffffffffffffffffffffffffff1602179055507341644d7ee8a08d76a6d17a0fb160a70c2d11953f600160006101000a81548173ffffffffffffffffffffffffffffffffffffffff021916908373ffffffffffffffffffffffffffffffffffffffff160217905550610e09806100c96000396000f3fe6080604052600436106100555760003560e01c8063549b39fc1461005a5780635bd2108e14610097578063967d6bb7146100c0578063a508d0ed14610103578063aa2fedde1461011f578063dbc837c51461014a575b600080fd5b34801561006657600080fd5b50610081600480360381019061007c91906107e8565b610175565b60405161008e9190610824565b60405180910390f35b3480156100a357600080fd5b506100be60048036038101906100b99190610985565b610199565b005b3480156100cc57600080fd5b506100e760048036038101906100e291906107e8565b6102f9565b6040516100fa9796959493929190610b08565b60405180910390f35b61011d600480360381019061011891906107e8565b610478565b005b34801561012b57600080fd5b506101346106b1565b6040516101419190610ba6565b60405180910390f35b34801561015657600080fd5b5061015f6106d5565b60405161016c9190610ba6565b60405180910390f35b6003818154811061018557600080fd5b906000526020600020016000915090505481565b60006002600086815260200190815260200160002090506002600086815260200190815260200160002060050160009054906101000a900460ff16156101de57600080fd5b338160000160006101000a81548173ffffffffffffffffffffffffffffffffffffffff021916908373ffffffffffffffffffffffffffffffffffffffff160217905550848160010181905550838160020190805190602001906102429291906106fb565b508281600301908051906020019061025b9291906106fb565b5081816004018190555060018160050160006101000a81548160ff0219169083151502179055506000816006018190555060038590806001815401808255809150506001900390600052602060002001600090919091909150557f280605db1804991625bee5d9ac659a66a80038574752cdda8a85aead408494c7858585856040516102ea9493929190610bc1565b60405180910390a15050505050565b60026020528060005260406000206000915090508060000160009054906101000a900473ffffffffffffffffffffffffffffffffffffffff169080600101549080600201805461034890610c43565b80601f016020809104026020016040519081016040528092919081815260200182805461037490610c43565b80156103c15780601f10610396576101008083540402835291602001916103c1565b820191906000526020600020905b8154815290600101906020018083116103a457829003601f168201915b5050505050908060030180546103d690610c43565b80601f016020809104026020016040519081016040528092919081815260200182805461040290610c43565b801561044f5780601f106104245761010080835404028352916020019161044f565b820191906000526020600020905b81548152906001019060200180831161043257829003601f168201915b5050505050908060040154908060050160009054906101000a900460ff16908060060154905087565b60008054906101000a900473ffffffffffffffffffffffffffffffffffffffff1673ffffffffffffffffffffffffffffffffffffffff163373ffffffffffffffffffffffffffffffffffffffff16148061051f5750600160009054906101000a900473ffffffffffffffffffffffffffffffffffffffff1673ffffffffffffffffffffffffffffffffffffffff163373ffffffffffffffffffffffffffffffffffffffff16145b61052857600080fd5b600060026000838152602001908152602001600020905060018160070160003373ffffffffffffffffffffffffffffffffffffffff1673ffffffffffffffffffffffffffffffffffffffff168152602001908152602001600020540361058d57600080fd5b60018160070160003373ffffffffffffffffffffffffffffffffffffffff1673ffffffffffffffffffffffffffffffffffffffff168152602001908152602001600020819055508060060160008154809291906105e990610ca3565b91905055507f28ecfcfe86487dce5d90ed37a865ac7f7a4c769ce8e33096c101c23ab681f9ca8160010154826002018360030184600401546040516106319493929190610d80565b60405180910390a160028160060154036106ad5760008054906101000a900473ffffffffffffffffffffffffffffffffffffffff1673ffffffffffffffffffffffffffffffffffffffff166108fc479081150290604051600060405180830381858888f193505050501580156106ab573d6000803e3d6000fd5b505b5050565b60008054906101000a900473ffffffffffffffffffffffffffffffffffffffff1681565b600160009054906101000a900473ffffffffffffffffffffffffffffffffffffffff1681565b82805461070790610c43565b90600052602060002090601f0160209004810192826107295760008555610770565b82601f1061074257805160ff1916838001178555610770565b82800160010185558215610770579182015b8281111561076f578251825591602001919060010190610754565b5b50905061077d9190610781565b5090565b5b8082111561079a576000816000905550600101610782565b5090565b6000604051905090565b600080fd5b600080fd5b6000819050919050565b6107c5816107b2565b81146107d057600080fd5b50565b6000813590506107e2816107bc565b92915050565b6000602082840312156107fe576107fd6107a8565b5b600061080c848285016107d3565b91505092915050565b61081e816107b2565b82525050565b60006020820190506108396000830184610815565b92915050565b600080fd5b600080fd5b6000601f19601f8301169050919050565b7f4e487b7100000000000000000000000000000000000000000000000000000000600052604160045260246000fd5b61089282610849565b810181811067ffffffffffffffff821117156108b1576108b061085a565b5b80604052505050565b60006108c461079e565b90506108d08282610889565b919050565b600067ffffffffffffffff8211156108f0576108ef61085a565b5b6108f982610849565b9050602081019050919050565b82818337600083830152505050565b6000610928610923846108d5565b6108ba565b90508281526020810184848401111561094457610943610844565b5b61094f848285610906565b509392505050565b600082601f83011261096c5761096b61083f565b5b813561097c848260208601610915565b91505092915050565b6000806000806080858703121561099f5761099e6107a8565b5b60006109ad878288016107d3565b945050602085013567ffffffffffffffff8111156109ce576109cd6107ad565b5b6109da87828801610957565b935050604085013567ffffffffffffffff8111156109fb576109fa6107ad565b5b610a0787828801610957565b9250506060610a18878288016107d3565b91505092959194509250565b600073ffffffffffffffffffffffffffffffffffffffff82169050919050565b6000610a4f82610a24565b9050919050565b610a5f81610a44565b82525050565b600081519050919050565b600082825260208201905092915050565b60005b83811015610a9f578082015181840152602081019050610a84565b83811115610aae576000848401525b50505050565b6000610abf82610a65565b610ac98185610a70565b9350610ad9818560208601610a81565b610ae281610849565b840191505092915050565b60008115159050919050565b610b0281610aed565b82525050565b600060e082019050610b1d600083018a610a56565b610b2a6020830189610815565b8181036040830152610b3c8188610ab4565b90508181036060830152610b508187610ab4565b9050610b5f6080830186610815565b610b6c60a0830185610af9565b610b7960c0830184610815565b98975050505050505050565b6000610b9082610a24565b9050919050565b610ba081610b85565b82525050565b6000602082019050610bbb6000830184610b97565b92915050565b6000608082019050610bd66000830187610815565b8181036020830152610be88186610ab4565b90508181036040830152610bfc8185610ab4565b9050610c0b6060830184610815565b95945050505050565b7f4e487b7100000000000000000000000000000000000000000000000000000000600052602260045260246000fd5b60006002820490506001821680610c5b57607f821691505b602082108103610c6e57610c6d610c14565b5b50919050565b7f4e487b7100000000000000000000000000000000000000000000000000000000600052601160045260246000fd5b6000610cae826107b2565b91507fffffffffffffffffffffffffffffffffffffffffffffffffffffffffffffffff8203610ce057610cdf610c74565b5b600182019050919050565b60008190508160005260206000209050919050565b60008154610d0d81610c43565b610d178186610a70565b94506001821660008114610d325760018114610d4457610d77565b60ff1983168652602086019350610d77565b610d4d85610ceb565b60005b83811015610d6f57815481890152600182019150602081019050610d50565b808801955050505b50505092915050565b6000608082019050610d956000830187610815565b8181036020830152610da78186610d00565b90508181036040830152610dbb8185610d00565b9050610dca6060830184610815565b9594505050505056fea2646970667358221220d7a6eda63d6b32ca2d8f736472990cea019ce8e52c1c7cae016896b46d95287964736f6c634300080d0033",
  "immutableReferences": {},
  "source": "// SPDX-License-Identifier: MIT\npragma solidity >=0.4.22 <0.9.0;\n\ncontract Insurance {\n    address payable public hospital;\n    address payable public insurer;\n\n    struct Record {\n        address addr;\n        uint256 id;\n        string name;\n        string date;\n        uint256 price;\n        bool isValue;\n        uint256 signatureCount;\n        mapping(address => uint256) signatures;\n    }\n\n    modifier signOnly() {\n        require(msg.sender == hospital || msg.sender == insurer);\n        _;\n    }\n\n    constructor() {\n        hospital = payable(0x1158E4032F4d183bFF14d452288AC7043aDacFF2);\n        insurer = payable(0x41644D7eE8A08D76a6D17a0fB160A70c2D11953F);\n    }\n\n    mapping(uint256 => Record) public allRecord;\n\n    uint256[] public recordsArr;\n\n    event recordCreated(\n        uint256 id,\n        string testName,\n        string date,\n        uint256 price\n    );\n\n    event recordSigned(uint256 id, string testName, string date, uint256 price);\n\n    function newRecord(\n        uint256 id,\n        string memory name,\n        string memory date,\n        uint256 price\n    ) public {\n        Record storage record = allRecord[id];\n        require(!allRecord[id].isValue);\n        record.addr = msg.sender;\n        record.id = id;\n        record.name = name;\n        record.date = date;\n        record.price = price;\n        record.isValue = true;\n        record.signatureCount = 0;\n        recordsArr.push(id);\n        emit recordCreated(id, name, date, price);\n    }\n\n    function signRecord(uint256 id) public payable signOnly {\n        Record storage record = allRecord[id];\n        require(record.signatures[msg.sender] != 1);\n        record.signatures[msg.sender] = 1;\n        record.signatureCount++;\n        emit recordSigned(record.id, record.name, record.date, record.price);\n        if (record.signatureCount == 2) {\n            hospital.transfer(address(this).balance);\n        }\n    }\n}\n",
  "sourcePath": "/home/misha/blockchain/eth/week_one/SimpleFinance/contracts/Insurance.sol",
  "compiler": {
    "name": "solc",
    "version": "0.8.13+commit.abaa5c0e.Emscripten.clang"
  },
  "schemaVersion": "3.4.7",
  "updatedAt": "2022-04-21T06:40:06.932Z",
  "networkType": "ethereum",
  "devdoc": {
    "kind": "dev",
    "methods": {},
    "version": 1
  },
  "userdoc": {
    "kind": "user",
    "methods": {},
    "version": 1
  }
}