{
  "contractName": "MyCoin",
  "abi": [
    {
      "anonymous": false,
      "inputs": [
        {
          "indexed": true,
          "internalType": "address",
          "name": "from",
          "type": "address"
        },
        {
          "indexed": true,
          "internalType": "address",
          "name": "to",
          "type": "address"
        },
        {
          "indexed": false,
          "internalType": "uint256",
          "name": "value",
          "type": "uint256"
        }
      ],
      "name": "Transfer",
      "type": "event"
    },
    {
      "inputs": [],
      "name": "Coin",
      "outputs": [],
      "stateMutability": "nonpayable",
      "type": "function"
    },
    {
      "inputs": [],
      "name": "totalSupply",
      "outputs": [
        {
          "internalType": "uint256",
          "name": "",
          "type": "uint256"
        }
      ],
      "stateMutability": "view",
      "type": "function",
      "constant": true
    },
    {
      "inputs": [
        {
          "internalType": "address",
          "name": "_owner",
          "type": "address"
        }
      ],
      "name": "balanceOf",
      "outputs": [
        {
          "internalType": "uint256",
          "name": "",
          "type": "uint256"
        }
      ],
      "stateMutability": "view",
      "type": "function",
      "constant": true
    },
    {
      "inputs": [
        {
          "internalType": "address",
          "name": "to",
          "type": "address"
        },
        {
          "internalType": "uint256",
          "name": "value",
          "type": "uint256"
        }
      ],
      "name": "transfer",
      "outputs": [
        {
          "internalType": "bool",
          "name": "",
          "type": "bool"
        }
      ],
      "stateMutability": "nonpayable",
      "type": "function"
    }
  ],
  "bytecode": "0x608060405234801561001057600080fd5b50610782806100206000396000f3fe608060405234801561001057600080fd5b506004361061004c5760003560e01c806318160ddd1461005157806370a082311461006f578063a77b2e371461009f578063a9059cbb146100a9575b600080fd5b6100596100d9565b60405161006691906104e6565b60405180910390f35b61008960048036038101906100849190610564565b6100e3565b60405161009691906104e6565b60405180910390f35b6100a761012c565b005b6100c360048036038101906100be91906105bd565b610276565b6040516100d09190610618565b60405180910390f35b6000600354905090565b6000600460008373ffffffffffffffffffffffffffffffffffffffff1673ffffffffffffffffffffffffffffffffffffffff168152602001908152602001600020549050919050565b336000806101000a81548173ffffffffffffffffffffffffffffffffffffffff021916908373ffffffffffffffffffffffffffffffffffffffff1602179055506040518060400160405280600681526020017f4d79436f696e0000000000000000000000000000000000000000000000000000815250600190805190602001906101b792919061042a565b506040518060400160405280600381526020017f4d594300000000000000000000000000000000000000000000000000000000008152506002908051906020019061020392919061042a565b506103e8600381905550600354600460008060009054906101000a900473ffffffffffffffffffffffffffffffffffffffff1673ffffffffffffffffffffffffffffffffffffffff1673ffffffffffffffffffffffffffffffffffffffff16815260200190815260200160002081905550565b600081600460003373ffffffffffffffffffffffffffffffffffffffff1673ffffffffffffffffffffffffffffffffffffffff1681526020019081526020016000205410156102c85760009050610424565b6000339050836000806101000a81548173ffffffffffffffffffffffffffffffffffffffff021916908373ffffffffffffffffffffffffffffffffffffffff1602179055508373ffffffffffffffffffffffffffffffffffffffff168173ffffffffffffffffffffffffffffffffffffffff167fddf252ad1be2c89b69c2b068fc378daa952ba7f163c4a11628f55a4df523b3ef8560405161036a91906104e6565b60405180910390a382600460008373ffffffffffffffffffffffffffffffffffffffff1673ffffffffffffffffffffffffffffffffffffffff16815260200190815260200160002060008282546103c19190610662565b9250508190555082600460008673ffffffffffffffffffffffffffffffffffffffff1673ffffffffffffffffffffffffffffffffffffffff16815260200190815260200160002060008282546104179190610696565b9250508190555060019150505b92915050565b8280546104369061071b565b90600052602060002090601f016020900481019282610458576000855561049f565b82601f1061047157805160ff191683800117855561049f565b8280016001018555821561049f579182015b8281111561049e578251825591602001919060010190610483565b5b5090506104ac91906104b0565b5090565b5b808211156104c95760008160009055506001016104b1565b5090565b6000819050919050565b6104e0816104cd565b82525050565b60006020820190506104fb60008301846104d7565b92915050565b600080fd5b600073ffffffffffffffffffffffffffffffffffffffff82169050919050565b600061053182610506565b9050919050565b61054181610526565b811461054c57600080fd5b50565b60008135905061055e81610538565b92915050565b60006020828403121561057a57610579610501565b5b60006105888482850161054f565b91505092915050565b61059a816104cd565b81146105a557600080fd5b50565b6000813590506105b781610591565b92915050565b600080604083850312156105d4576105d3610501565b5b60006105e28582860161054f565b92505060206105f3858286016105a8565b9150509250929050565b60008115159050919050565b610612816105fd565b82525050565b600060208201905061062d6000830184610609565b92915050565b7f4e487b7100000000000000000000000000000000000000000000000000000000600052601160045260246000fd5b600061066d826104cd565b9150610678836104cd565b92508282101561068b5761068a610633565b5b828203905092915050565b60006106a1826104cd565b91506106ac836104cd565b9250827fffffffffffffffffffffffffffffffffffffffffffffffffffffffffffffffff038211156106e1576106e0610633565b5b828201905092915050565b7f4e487b7100000000000000000000000000000000000000000000000000000000600052602260045260246000fd5b6000600282049050600182168061073357607f821691505b602082108103610746576107456106ec565b5b5091905056fea264697066735822122079f9c8c7fbe8f20eede11461bb5cc403ce16ed626e85f975123f425144b932e264736f6c634300080d0033",
  "immutableReferences": {},
  "source": "// SPDX-License-Identifier: MIT\npragma solidity >=0.4.22 <0.9.0;\n\ncontract MyCoin {\n    address owner;\n    string name;\n    string symbol;\n    uint256 totalCoins;\n\n    function Coin() public {\n        owner = msg.sender;\n        name = \"MyCoin\";\n        symbol = \"MYC\";\n        totalCoins = 1000;\n        balance[owner] = totalCoins;\n    }\n\n    mapping(address => uint256) balance;\n\n    function totalSupply() public view returns (uint256) {\n        return totalCoins;\n    }\n\n    function balanceOf(address _owner) public view returns (uint256) {\n        return balance[_owner];\n    }\n\n    function transfer(address to, uint256 value) public returns (bool) {\n        if (balance[msg.sender] < value) {\n            return false;\n        }\n        address from = msg.sender;\n        owner = to;\n        emit Transfer(from, to, value);\n        balance[from] -= value;\n        balance[to] += value;\n        return true;\n    }\n\n    event Transfer(address indexed from, address indexed to, uint256 value);\n}\n",
  "sourcePath": "/home/misha/blockchain/eth/week_one/SimpleFinance/contracts/MyCoin.sol",
  "compiler": {
    "name": "solc",
    "version": "0.8.13+commit.abaa5c0e.Emscripten.clang"
  },
  "schemaVersion": "3.4.7",
  "updatedAt": "2022-04-21T06:57:49.722Z",
  "networkType": "ethereum",
  "devdoc": {
    "kind": "dev",
    "methods": {},
    "version": 1
  },
  "userdoc": {
    "kind": "user",
    "methods": {},
    "version": 1
  }
}