{
  "contractName": "Split",
  "abi": [
    {
      "inputs": [],
      "stateMutability": "nonpayable",
      "type": "constructor"
    },
    {
      "anonymous": false,
      "inputs": [
        {
          "indexed": false,
          "internalType": "address",
          "name": "from",
          "type": "address"
        },
        {
          "indexed": false,
          "internalType": "address",
          "name": "receiver1",
          "type": "address"
        },
        {
          "indexed": false,
          "internalType": "address",
          "name": "receiver2",
          "type": "address"
        },
        {
          "indexed": false,
          "internalType": "address",
          "name": "receiver3",
          "type": "address"
        },
        {
          "indexed": false,
          "internalType": "uint256",
          "name": "amount",
          "type": "uint256"
        }
      ],
      "name": "Sent",
      "type": "event"
    },
    {
      "inputs": [
        {
          "internalType": "address",
          "name": "",
          "type": "address"
        }
      ],
      "name": "balances",
      "outputs": [
        {
          "internalType": "uint256",
          "name": "",
          "type": "uint256"
        }
      ],
      "stateMutability": "view",
      "type": "function",
      "constant": true
    },
    {
      "inputs": [],
      "name": "owner",
      "outputs": [
        {
          "internalType": "address",
          "name": "",
          "type": "address"
        }
      ],
      "stateMutability": "view",
      "type": "function",
      "constant": true
    },
    {
      "inputs": [
        {
          "internalType": "address",
          "name": "receiver",
          "type": "address"
        },
        {
          "internalType": "uint256",
          "name": "amount",
          "type": "uint256"
        }
      ],
      "name": "coin",
      "outputs": [],
      "stateMutability": "nonpayable",
      "type": "function"
    },
    {
      "inputs": [
        {
          "internalType": "address",
          "name": "receiver1",
          "type": "address"
        },
        {
          "internalType": "address",
          "name": "receiver2",
          "type": "address"
        },
        {
          "internalType": "address",
          "name": "receiver3",
          "type": "address"
        },
        {
          "internalType": "uint256",
          "name": "amount",
          "type": "uint256"
        }
      ],
      "name": "send",
      "outputs": [],
      "stateMutability": "nonpayable",
      "type": "function"
    }
  ],
  "bytecode": "0x608060405234801561001057600080fd5b50336000806101000a81548173ffffffffffffffffffffffffffffffffffffffff021916908373ffffffffffffffffffffffffffffffffffffffff160217905550610951806100606000396000f3fe608060405234801561001057600080fd5b506004361061004c5760003560e01c806306e83e2f1461005157806327e235e31461006d578063611091a31461009d5780638da5cb5b146100b9575b600080fd5b61006b60048036038101906100669190610532565b6100d7565b005b61008760048036038101906100829190610599565b61031a565b60405161009491906105d5565b60405180910390f35b6100b760048036038101906100b291906105f0565b610332565b005b6100c1610475565b6040516100ce919061063f565b60405180910390f35b600160003373ffffffffffffffffffffffffffffffffffffffff1673ffffffffffffffffffffffffffffffffffffffff16815260200190815260200160002054811115610159576040517f08c379a0000000000000000000000000000000000000000000000000000000008152600401610150906106b7565b60405180910390fd5b80600160003373ffffffffffffffffffffffffffffffffffffffff1673ffffffffffffffffffffffffffffffffffffffff16815260200190815260200160002060008282546101a89190610706565b925050819055506003816101bc9190610769565b600160008673ffffffffffffffffffffffffffffffffffffffff1673ffffffffffffffffffffffffffffffffffffffff168152602001908152602001600020600082825461020a919061079a565b9250508190555060038161021e9190610769565b600160008573ffffffffffffffffffffffffffffffffffffffff1673ffffffffffffffffffffffffffffffffffffffff168152602001908152602001600020600082825461026c919061079a565b925050819055506003816102809190610769565b600160008473ffffffffffffffffffffffffffffffffffffffff1673ffffffffffffffffffffffffffffffffffffffff16815260200190815260200160002060008282546102ce919061079a565b925050819055507f95d20b8cc14fb0b07771beba66604f5c580b5dd12afefa9db7c7ee65062332e5338585858560405161030c9594939291906107f0565b60405180910390a150505050565b60016020528060005260406000206000915090505481565b60008054906101000a900473ffffffffffffffffffffffffffffffffffffffff1673ffffffffffffffffffffffffffffffffffffffff163373ffffffffffffffffffffffffffffffffffffffff16146103c0576040517f08c379a00000000000000000000000000000000000000000000000000000000081526004016103b79061088f565b60405180910390fd5b789f4f2726179a224501d762422c946590d91000000000000000811061041b576040517f08c379a0000000000000000000000000000000000000000000000000000000008152600401610412906108fb565b60405180910390fd5b80600160008473ffffffffffffffffffffffffffffffffffffffff1673ffffffffffffffffffffffffffffffffffffffff168152602001908152602001600020600082825461046a919061079a565b925050819055505050565b60008054906101000a900473ffffffffffffffffffffffffffffffffffffffff1681565b600080fd5b600073ffffffffffffffffffffffffffffffffffffffff82169050919050565b60006104c98261049e565b9050919050565b6104d9816104be565b81146104e457600080fd5b50565b6000813590506104f6816104d0565b92915050565b6000819050919050565b61050f816104fc565b811461051a57600080fd5b50565b60008135905061052c81610506565b92915050565b6000806000806080858703121561054c5761054b610499565b5b600061055a878288016104e7565b945050602061056b878288016104e7565b935050604061057c878288016104e7565b925050606061058d8782880161051d565b91505092959194509250565b6000602082840312156105af576105ae610499565b5b60006105bd848285016104e7565b91505092915050565b6105cf816104fc565b82525050565b60006020820190506105ea60008301846105c6565b92915050565b6000806040838503121561060757610606610499565b5b6000610615858286016104e7565b92505060206106268582860161051d565b9150509250929050565b610639816104be565b82525050565b60006020820190506106546000830184610630565b92915050565b600082825260208201905092915050565b7f496e73756666696369656e742066756e64730000000000000000000000000000600082015250565b60006106a160128361065a565b91506106ac8261066b565b602082019050919050565b600060208201905081810360008301526106d081610694565b9050919050565b7f4e487b7100000000000000000000000000000000000000000000000000000000600052601160045260246000fd5b6000610711826104fc565b915061071c836104fc565b92508282101561072f5761072e6106d7565b5b828203905092915050565b7f4e487b7100000000000000000000000000000000000000000000000000000000600052601260045260246000fd5b6000610774826104fc565b915061077f836104fc565b92508261078f5761078e61073a565b5b828204905092915050565b60006107a5826104fc565b91506107b0836104fc565b9250827fffffffffffffffffffffffffffffffffffffffffffffffffffffffffffffffff038211156107e5576107e46106d7565b5b828201905092915050565b600060a0820190506108056000830188610630565b6108126020830187610630565b61081f6040830186610630565b61082c6060830185610630565b61083960808301846105c6565b9695505050505050565b7f4163636573732064656e69656400000000000000000000000000000000000000600082015250565b6000610879600d8361065a565b915061088482610843565b602082019050919050565b600060208201905081810360008301526108a88161086c565b9050919050565b7f4f766572666c6f77000000000000000000000000000000000000000000000000600082015250565b60006108e560088361065a565b91506108f0826108af565b602082019050919050565b60006020820190508181036000830152610914816108d8565b905091905056fea26469706673582212203a0e3d4671455106075235c1c225ec12ad4fa36d17298deaf1bf025e38d2344264736f6c634300080d0033",
  "immutableReferences": {},
  "source": "// SPDX-License-Identifier: MIT\npragma solidity >=0.4.22 <0.9.0;\n\ncontract Split {\n    address public owner;\n    mapping(address => uint256) public balances;\n    event Sent(\n        address from,\n        address receiver1,\n        address receiver2,\n        address receiver3,\n        uint256 amount\n    );\n\n    constructor() {\n        owner = msg.sender;\n    }\n\n    function coin(address receiver, uint256 amount) public {\n        require(msg.sender == owner, \"Access denied\");\n        require(amount < 1e60, \"Overflow\");\n        balances[receiver] += amount;\n    }\n\n    function send(\n        address receiver1,\n        address receiver2,\n        address receiver3,\n        uint256 amount\n    ) public {\n        require(amount <= balances[msg.sender], \"Insufficient funds\");\n        balances[msg.sender] -= amount;\n        balances[receiver1] += amount / 3;\n        balances[receiver2] += amount / 3;\n        balances[receiver3] += amount / 3;\n        emit Sent(msg.sender, receiver1, receiver2, receiver3, amount);\n    }\n}\n",
  "sourcePath": "/home/misha/blockchain/eth/week_one/SimpleFinance/contracts/Split.sol",
  "compiler": {
    "name": "solc",
    "version": "0.8.13+commit.abaa5c0e.Emscripten.clang"
  },
  "schemaVersion": "3.4.7",
  "updatedAt": "2022-04-20T14:28:21.893Z",
  "networkType": "ethereum",
  "devdoc": {
    "kind": "dev",
    "methods": {},
    "version": 1
  },
  "userdoc": {
    "kind": "user",
    "methods": {},
    "version": 1
  }
}