{
  "contractName": "Dice",
  "abi": [
    {
      "inputs": [],
      "stateMutability": "nonpayable",
      "type": "constructor"
    },
    {
      "inputs": [],
      "name": "manager",
      "outputs": [
        {
          "internalType": "address",
          "name": "",
          "type": "address"
        }
      ],
      "stateMutability": "view",
      "type": "function",
      "constant": true
    },
    {
      "inputs": [
        {
          "internalType": "uint256",
          "name": "",
          "type": "uint256"
        }
      ],
      "name": "players",
      "outputs": [
        {
          "internalType": "address payable",
          "name": "",
          "type": "address"
        }
      ],
      "stateMutability": "view",
      "type": "function",
      "constant": true
    },
    {
      "inputs": [],
      "name": "ceo",
      "outputs": [],
      "stateMutability": "nonpayable",
      "type": "function"
    },
    {
      "inputs": [],
      "name": "enter",
      "outputs": [],
      "stateMutability": "payable",
      "type": "function",
      "payable": true
    },
    {
      "inputs": [],
      "name": "winner",
      "outputs": [
        {
          "internalType": "string",
          "name": "",
          "type": "string"
        },
        {
          "internalType": "uint256",
          "name": "",
          "type": "uint256"
        },
        {
          "internalType": "uint256",
          "name": "",
          "type": "uint256"
        }
      ],
      "stateMutability": "payable",
      "type": "function",
      "payable": true
    }
  ],
  "bytecode": "0x608060405234801561001057600080fd5b50336000806101000a81548173ffffffffffffffffffffffffffffffffffffffff021916908373ffffffffffffffffffffffffffffffffffffffff1602179055506109e8806100606000396000f3fe60806040526004361061004a5760003560e01c8063481c6a751461004f578063908921fc1461007a578063dfbf53ae14610091578063e97dcb62146100b1578063f71d96cb146100bb575b600080fd5b34801561005b57600080fd5b506100646100f8565b604051610071919061057b565b60405180910390f35b34801561008657600080fd5b5061008f61011c565b005b61009961015e565b6040516100a893929190610648565b60405180910390f35b6100b96103fe565b005b3480156100c757600080fd5b506100e260048036038101906100dd91906106b7565b6104ac565b6040516100ef9190610705565b60405180910390f35b60008054906101000a900473ffffffffffffffffffffffffffffffffffffffff1681565b336000806101000a81548173ffffffffffffffffffffffffffffffffffffffff021916908373ffffffffffffffffffffffffffffffffffffffff160217905550565b606060008060008054906101000a900473ffffffffffffffffffffffffffffffffffffffff1673ffffffffffffffffffffffffffffffffffffffff163373ffffffffffffffffffffffffffffffffffffffff16146101f1576040517f08c379a00000000000000000000000000000000000000000000000000000000081526004016101e89061076c565b60405180910390fd5b60006101fd60006104eb565b9050600061020b60016104eb565b9050808211156102e257600160008154811061022a5761022961078c565b5b9060005260206000200160009054906101000a900473ffffffffffffffffffffffffffffffffffffffff1673ffffffffffffffffffffffffffffffffffffffff166108fc479081150290604051600060405180830381858888f1935050505015801561029a573d6000803e3d6000fd5b5081816040518060400160405280601181526020017f546865206669727374206f6e6520776f6e000000000000000000000000000000815250919094509450945050506103f9565b818111156103b657600180815481106102fe576102fd61078c565b5b9060005260206000200160009054906101000a900473ffffffffffffffffffffffffffffffffffffffff1673ffffffffffffffffffffffffffffffffffffffff166108fc479081150290604051600060405180830381858888f1935050505015801561036e573d6000803e3d6000fd5b5081816040518060400160405280601281526020017f546865207365636f6e64206f6e6520776f6e0000000000000000000000000000815250919094509450945050506103f9565b81816040518060400160405280600481526020017f4472617700000000000000000000000000000000000000000000000000000000815250919094509450945050505b909192565b66038d7ea4c680003411610447576040517f08c379a000000000000000000000000000000000000000000000000000000000815260040161043e90610807565b60405180910390fd5b6001339080600181540180825580915050600190039060005260206000200160009091909190916101000a81548173ffffffffffffffffffffffffffffffffffffffff021916908373ffffffffffffffffffffffffffffffffffffffff160217905550565b600181815481106104bc57600080fd5b906000526020600020016000915054906101000a900473ffffffffffffffffffffffffffffffffffffffff1681565b60006002600a42338560405160200161050693929190610890565b6040516020818303038152906040528051906020012060001c61052991906108fc565b610533919061095c565b9050919050565b600073ffffffffffffffffffffffffffffffffffffffff82169050919050565b60006105658261053a565b9050919050565b6105758161055a565b82525050565b6000602082019050610590600083018461056c565b92915050565b600081519050919050565b600082825260208201905092915050565b60005b838110156105d05780820151818401526020810190506105b5565b838111156105df576000848401525b50505050565b6000601f19601f8301169050919050565b600061060182610596565b61060b81856105a1565b935061061b8185602086016105b2565b610624816105e5565b840191505092915050565b6000819050919050565b6106428161062f565b82525050565b6000606082019050818103600083015261066281866105f6565b90506106716020830185610639565b61067e6040830184610639565b949350505050565b600080fd5b6106948161062f565b811461069f57600080fd5b50565b6000813590506106b18161068b565b92915050565b6000602082840312156106cd576106cc610686565b5b60006106db848285016106a2565b91505092915050565b60006106ef8261053a565b9050919050565b6106ff816106e4565b82525050565b600060208201905061071a60008301846106f6565b92915050565b7f4e6f206163636573730000000000000000000000000000000000000000000000600082015250565b60006107566009836105a1565b915061076182610720565b602082019050919050565b6000602082019050818103600083015261078581610749565b9050919050565b7f4e487b7100000000000000000000000000000000000000000000000000000000600052603260045260246000fd5b7f5468652062696420697320746f6f20736d616c6c210000000000000000000000600082015250565b60006107f16015836105a1565b91506107fc826107bb565b602082019050919050565b60006020820190508181036000830152610820816107e4565b9050919050565b6000819050919050565b61084261083d8261062f565b610827565b82525050565b60008160601b9050919050565b600061086082610848565b9050919050565b600061087282610855565b9050919050565b61088a6108858261055a565b610867565b82525050565b600061089c8286610831565b6020820191506108ac8285610879565b6014820191506108bc8284610831565b602082019150819050949350505050565b7f4e487b7100000000000000000000000000000000000000000000000000000000600052601260045260246000fd5b60006109078261062f565b91506109128361062f565b925082610922576109216108cd565b5b828206905092915050565b7f4e487b7100000000000000000000000000000000000000000000000000000000600052601160045260246000fd5b60006109678261062f565b91506109728361062f565b9250827fffffffffffffffffffffffffffffffffffffffffffffffffffffffffffffffff038211156109a7576109a661092d565b5b82820190509291505056fea264697066735822122041f00e420dec1e1233affd038308c949d945b6dd31d2d382ccd1ee98d7c013d364736f6c634300080d0033",
  "immutableReferences": {},
  "source": "// SPDX-License-Identifier: MIT\npragma solidity >=0.4.22 <0.9.0;\n\ncontract Dice {\n    address public manager;\n    address payable[] public players;\n\n    modifier onlyManager() {\n        require(manager == msg.sender, \"No access\");\n        _;\n    }\n\n    constructor() {\n        manager = msg.sender;\n    }\n\n    function ceo() public {\n        manager = msg.sender;\n    }\n\n    function enter() public payable {\n        require(msg.value > 0.001 ether, \"The bid is too small!\");\n        players.push(payable(msg.sender));\n    }\n\n    function getRandomNumber(uint256 seed)\n        private\n        view\n        returns (uint256 randomNumber)\n    {\n        return\n            (uint256(\n                keccak256(abi.encodePacked(block.timestamp, msg.sender, seed))\n            ) % 10) + 2;\n    }\n\n    function winner()\n        public\n        payable\n        restricted\n        returns (\n            string memory,\n            uint256,\n            uint256\n        )\n    {\n        uint256 playerOne = getRandomNumber(0);\n        uint256 playerTwo = getRandomNumber(1);\n        if (playerOne > playerTwo) {\n            players[0].transfer(address(this).balance);\n            return (\"The first one won\", playerOne, playerTwo);\n        }\n        if (playerTwo > playerOne) {\n            players[1].transfer(address(this).balance);\n            return (\"The second one won\", playerOne, playerTwo);\n        }\n        return (\"Draw\", playerOne, playerTwo);\n    }\n\n    modifier restricted() {\n        require(msg.sender == manager, \"No access\");\n        _;\n    }\n}\n",
  "sourcePath": "/home/misha/blockchain/eth/week_one/SimpleGames/contracts/Dice.sol",
  "compiler": {
    "name": "solc",
    "version": "0.8.13+commit.abaa5c0e.Emscripten.clang"
  },
  "schemaVersion": "3.4.7",
  "updatedAt": "2022-04-21T07:07:28.464Z",
  "networkType": "ethereum",
  "devdoc": {
    "kind": "dev",
    "methods": {},
    "version": 1
  },
  "userdoc": {
    "kind": "user",
    "methods": {},
    "version": 1
  }
}