{
  "contractName": "DragonFarm",
  "abi": [
    {
      "anonymous": false,
      "inputs": [
        {
          "indexed": false,
          "internalType": "uint256",
          "name": "id",
          "type": "uint256"
        },
        {
          "indexed": false,
          "internalType": "string",
          "name": "name",
          "type": "string"
        },
        {
          "indexed": false,
          "internalType": "uint256",
          "name": "dna",
          "type": "uint256"
        }
      ],
      "name": "newDragon",
      "type": "event"
    },
    {
      "inputs": [
        {
          "internalType": "uint256",
          "name": "",
          "type": "uint256"
        }
      ],
      "name": "dragons",
      "outputs": [
        {
          "internalType": "uint256",
          "name": "id",
          "type": "uint256"
        },
        {
          "internalType": "string",
          "name": "name",
          "type": "string"
        },
        {
          "internalType": "uint256",
          "name": "dna",
          "type": "uint256"
        }
      ],
      "stateMutability": "view",
      "type": "function",
      "constant": true
    },
    {
      "inputs": [
        {
          "internalType": "string",
          "name": "_name",
          "type": "string"
        }
      ],
      "name": "createDragon",
      "outputs": [],
      "stateMutability": "nonpayable",
      "type": "function"
    }
  ],
  "bytecode": "0x608060405234801561001057600080fd5b506107c2806100206000396000f3fe608060405234801561001057600080fd5b50600436106100365760003560e01c80636775f7711461003b578063d2a59d6914610057575b600080fd5b61005560048036038101906100509190610529565b610089565b005b610071600480360381019061006c91906105a8565b610225565b6040516100809392919061066c565b60405180910390f35b6000610094826102e7565b90506000600260003373ffffffffffffffffffffffffffffffffffffffff1673ffffffffffffffffffffffffffffffffffffffff1681526020019081526020016000205490506000604051806060016040528083815260200185815260200184815250908060018154018082558091505060019003906000526020600020906003020160009091909190915060008201518160000155602082015181600101908051906020019061014692919061032c565b50604082015181600201555050336001600083815260200190815260200160002060006101000a81548173ffffffffffffffffffffffffffffffffffffffff021916908373ffffffffffffffffffffffffffffffffffffffff1602179055507f7288789c7ad1822c004d539ef99e632f9ded5cbb49f7e86bfdcbfb05a28cbadd8184846040516101d89392919061066c565b60405180910390a1600260003373ffffffffffffffffffffffffffffffffffffffff1673ffffffffffffffffffffffffffffffffffffffff16815260200190815260200160002050505050565b6000818154811061023557600080fd5b906000526020600020906003020160009150905080600001549080600101805461025e906106d9565b80601f016020809104026020016040519081016040528092919081815260200182805461028a906106d9565b80156102d75780601f106102ac576101008083540402835291602001916102d7565b820191906000526020600020905b8154815290600101906020018083116102ba57829003601f168201915b5050505050908060020154905083565b6000662386f26fc1000082604051602001610302919061070a565b6040516020818303038152906040528051906020012060001c610325919061075b565b9050919050565b828054610338906106d9565b90600052602060002090601f01602090048101928261035a57600085556103a1565b82601f1061037357805160ff19168380011785556103a1565b828001600101855582156103a1579182015b828111156103a0578251825591602001919060010190610385565b5b5090506103ae91906103b2565b5090565b5b808211156103cb5760008160009055506001016103b3565b5090565b6000604051905090565b600080fd5b600080fd5b600080fd5b600080fd5b6000601f19601f8301169050919050565b7f4e487b7100000000000000000000000000000000000000000000000000000000600052604160045260246000fd5b610436826103ed565b810181811067ffffffffffffffff82111715610455576104546103fe565b5b80604052505050565b60006104686103cf565b9050610474828261042d565b919050565b600067ffffffffffffffff821115610494576104936103fe565b5b61049d826103ed565b9050602081019050919050565b82818337600083830152505050565b60006104cc6104c784610479565b61045e565b9050828152602081018484840111156104e8576104e76103e8565b5b6104f38482856104aa565b509392505050565b600082601f8301126105105761050f6103e3565b5b81356105208482602086016104b9565b91505092915050565b60006020828403121561053f5761053e6103d9565b5b600082013567ffffffffffffffff81111561055d5761055c6103de565b5b610569848285016104fb565b91505092915050565b6000819050919050565b61058581610572565b811461059057600080fd5b50565b6000813590506105a28161057c565b92915050565b6000602082840312156105be576105bd6103d9565b5b60006105cc84828501610593565b91505092915050565b6105de81610572565b82525050565b600081519050919050565b600082825260208201905092915050565b60005b8381101561061e578082015181840152602081019050610603565b8381111561062d576000848401525b50505050565b600061063e826105e4565b61064881856105ef565b9350610658818560208601610600565b610661816103ed565b840191505092915050565b600060608201905061068160008301866105d5565b81810360208301526106938185610633565b90506106a260408301846105d5565b949350505050565b7f4e487b7100000000000000000000000000000000000000000000000000000000600052602260045260246000fd5b600060028204905060018216806106f157607f821691505b602082108103610704576107036106aa565b5b50919050565b600060208201905081810360008301526107248184610633565b905092915050565b7f4e487b7100000000000000000000000000000000000000000000000000000000600052601260045260246000fd5b600061076682610572565b915061077183610572565b9250826107815761078061072c565b5b82820690509291505056fea26469706673582212207319010680b9a34efbdd13f03481b9816b7d45dbbfaf66be5e6032698c7f100a64736f6c634300080d0033",
  "immutableReferences": {},
  "source": "// SPDX-License-Identifier: MIT\npragma solidity >=0.4.22 <0.9.0;\n\ncontract DragonFarm {\n    event newDragon(uint256 id, string name, uint256 dna);\n    struct Dragon {\n        uint256 id;\n        string name;\n        uint256 dna;\n    }\n    Dragon[] public dragons;\n    mapping(uint256 => address) dragonOwner;\n    mapping(address => uint256) ownerDragons;\n\n    function generateRandomData(string memory _str)\n        private\n        pure\n        returns (uint256 randomValue)\n    {\n        return uint256(keccak256((abi.encode(_str)))) % (10**16);\n    }\n\n    function createDragon(string memory _name) public {\n        uint256 dna = generateRandomData(_name);\n        uint256 id = ownerDragons[msg.sender];\n        dragons.push(Dragon(id, _name, dna));\n        dragonOwner[id] = msg.sender;\n        emit newDragon(id, _name, dna);\n        ownerDragons[msg.sender];\n    }\n}\n",
  "sourcePath": "/home/misha/blockchain/eth/week_one/SimpleGames/contracts/DragonFarm.sol",
  "compiler": {
    "name": "solc",
    "version": "0.8.13+commit.abaa5c0e.Emscripten.clang"
  },
  "schemaVersion": "3.4.7",
  "updatedAt": "2022-04-21T07:07:28.702Z",
  "networkType": "ethereum",
  "devdoc": {
    "kind": "dev",
    "methods": {},
    "version": 1
  },
  "userdoc": {
    "kind": "user",
    "methods": {},
    "version": 1
  }
}