{
  "contractName": "DragonForge",
  "abi": [
    {
      "anonymous": false,
      "inputs": [
        {
          "indexed": false,
          "internalType": "uint256",
          "name": "id",
          "type": "uint256"
        },
        {
          "indexed": false,
          "internalType": "string",
          "name": "name",
          "type": "string"
        },
        {
          "indexed": false,
          "internalType": "uint256",
          "name": "dna",
          "type": "uint256"
        }
      ],
      "name": "newDragon",
      "type": "event"
    },
    {
      "inputs": [
        {
          "internalType": "string",
          "name": "_name",
          "type": "string"
        }
      ],
      "name": "createDragon",
      "outputs": [],
      "stateMutability": "nonpayable",
      "type": "function"
    },
    {
      "inputs": [
        {
          "internalType": "uint256",
          "name": "",
          "type": "uint256"
        }
      ],
      "name": "dragons",
      "outputs": [
        {
          "internalType": "uint256",
          "name": "id",
          "type": "uint256"
        },
        {
          "internalType": "string",
          "name": "name",
          "type": "string"
        },
        {
          "internalType": "uint256",
          "name": "dna",
          "type": "uint256"
        }
      ],
      "stateMutability": "view",
      "type": "function",
      "constant": true
    },
    {
      "inputs": [
        {
          "internalType": "string",
          "name": "name",
          "type": "string"
        },
        {
          "internalType": "uint256",
          "name": "id",
          "type": "uint256"
        },
        {
          "internalType": "uint256",
          "name": "food",
          "type": "uint256"
        }
      ],
      "name": "reforge",
      "outputs": [],
      "stateMutability": "payable",
      "type": "function",
      "payable": true
    }
  ],
  "bytecode": "0x608060405234801561001057600080fd5b50610ac1806100206000396000f3fe6080604052600436106100345760003560e01c80636775f771146100395780638691c5d014610062578063d2a59d691461007e575b600080fd5b34801561004557600080fd5b50610060600480360381019061005b919061067c565b6100bd565b005b61007c600480360381019061007791906106fb565b610259565b005b34801561008a57600080fd5b506100a560048036038101906100a0919061076a565b610378565b6040516100b49392919061082e565b60405180910390f35b60006100c88261043a565b90506000600260003373ffffffffffffffffffffffffffffffffffffffff1673ffffffffffffffffffffffffffffffffffffffff1681526020019081526020016000205490506000604051806060016040528083815260200185815260200184815250908060018154018082558091505060019003906000526020600020906003020160009091909190915060008201518160000155602082015181600101908051906020019061017a92919061047f565b50604082015181600201555050336001600083815260200190815260200160002060006101000a81548173ffffffffffffffffffffffffffffffffffffffff021916908373ffffffffffffffffffffffffffffffffffffffff1602179055507f7288789c7ad1822c004d539ef99e632f9ded5cbb49f7e86bfdcbfb05a28cbadd81848460405161020c9392919061082e565b60405180910390a1600260003373ffffffffffffffffffffffffffffffffffffffff1673ffffffffffffffffffffffffffffffffffffffff16815260200190815260200160002050505050565b6000341161029c576040517f08c379a0000000000000000000000000000000000000000000000000000000008152600401610293906108b8565b60405180910390fd5b6000662386f26fc10000826040516020016102b791906108d8565b6040516020818303038152906040528051906020012060001c6102da9190610922565b90506000600282856102ec9190610982565b6102f691906109d8565b90506000604051806060016040528086815260200187815260200183815250908060018154018082558091505060019003906000526020600020906003020160009091909190915060008201518160000155602082015181600101908051906020019061036492919061047f565b506040820151816002015550505050505050565b6000818154811061038857600080fd5b90600052602060002090600302016000915090508060000154908060010180546103b190610a38565b80601f01602080910402602001604051908101604052809291908181526020018280546103dd90610a38565b801561042a5780601f106103ff5761010080835404028352916020019161042a565b820191906000526020600020905b81548152906001019060200180831161040d57829003601f168201915b5050505050908060020154905083565b6000662386f26fc10000826040516020016104559190610a69565b6040516020818303038152906040528051906020012060001c6104789190610922565b9050919050565b82805461048b90610a38565b90600052602060002090601f0160209004810192826104ad57600085556104f4565b82601f106104c657805160ff19168380011785556104f4565b828001600101855582156104f4579182015b828111156104f35782518255916020019190600101906104d8565b5b5090506105019190610505565b5090565b5b8082111561051e576000816000905550600101610506565b5090565b6000604051905090565b600080fd5b600080fd5b600080fd5b600080fd5b6000601f19601f8301169050919050565b7f4e487b7100000000000000000000000000000000000000000000000000000000600052604160045260246000fd5b61058982610540565b810181811067ffffffffffffffff821117156105a8576105a7610551565b5b80604052505050565b60006105bb610522565b90506105c78282610580565b919050565b600067ffffffffffffffff8211156105e7576105e6610551565b5b6105f082610540565b9050602081019050919050565b82818337600083830152505050565b600061061f61061a846105cc565b6105b1565b90508281526020810184848401111561063b5761063a61053b565b5b6106468482856105fd565b509392505050565b600082601f83011261066357610662610536565b5b813561067384826020860161060c565b91505092915050565b6000602082840312156106925761069161052c565b5b600082013567ffffffffffffffff8111156106b0576106af610531565b5b6106bc8482850161064e565b91505092915050565b6000819050919050565b6106d8816106c5565b81146106e357600080fd5b50565b6000813590506106f5816106cf565b92915050565b6000806000606084860312156107145761071361052c565b5b600084013567ffffffffffffffff81111561073257610731610531565b5b61073e8682870161064e565b935050602061074f868287016106e6565b9250506040610760868287016106e6565b9150509250925092565b6000602082840312156107805761077f61052c565b5b600061078e848285016106e6565b91505092915050565b6107a0816106c5565b82525050565b600081519050919050565b600082825260208201905092915050565b60005b838110156107e05780820151818401526020810190506107c5565b838111156107ef576000848401525b50505050565b6000610800826107a6565b61080a81856107b1565b935061081a8185602086016107c2565b61082381610540565b840191505092915050565b60006060820190506108436000830186610797565b818103602083015261085581856107f5565b90506108646040830184610797565b949350505050565b7f50617920666f722074686520666f6f6400000000000000000000000000000000600082015250565b60006108a26010836107b1565b91506108ad8261086c565b602082019050919050565b600060208201905081810360008301526108d181610895565b9050919050565b60006020820190506108ed6000830184610797565b92915050565b7f4e487b7100000000000000000000000000000000000000000000000000000000600052601260045260246000fd5b600061092d826106c5565b9150610938836106c5565b925082610948576109476108f3565b5b828206905092915050565b7f4e487b7100000000000000000000000000000000000000000000000000000000600052601160045260246000fd5b600061098d826106c5565b9150610998836106c5565b9250827fffffffffffffffffffffffffffffffffffffffffffffffffffffffffffffffff038211156109cd576109cc610953565b5b828201905092915050565b60006109e3826106c5565b91506109ee836106c5565b9250826109fe576109fd6108f3565b5b828204905092915050565b7f4e487b7100000000000000000000000000000000000000000000000000000000600052602260045260246000fd5b60006002820490506001821680610a5057607f821691505b602082108103610a6357610a62610a09565b5b50919050565b60006020820190508181036000830152610a8381846107f5565b90509291505056fea2646970667358221220d282ff5c2761741b9971ed094d8dc6aac82bd95d046e8b89f4a48602220ddcbf64736f6c634300080d0033",
  "immutableReferences": {},
  "source": "// SPDX-License-Identifier: MIT\npragma solidity >=0.4.22 <0.9.0;\n\nimport \"./DragonFarm.sol\";\n\ncontract DragonForge is DragonFarm {\n    function reforge(\n        string memory name,\n        uint256 id,\n        uint256 food\n    ) public payable {\n        require(msg.value > 0, \"Pay for the food\");\n        uint256 brains = uint256(keccak256((abi.encode(food)))) % (10**16);\n        uint256 newDna = (id + brains) / 2;\n        dragons.push(Dragon(id, name, newDna));\n    }\n}\n",
  "sourcePath": "/home/misha/blockchain/eth/week_one/SimpleGames/contracts/DragonForge.sol",
  "compiler": {
    "name": "solc",
    "version": "0.8.13+commit.abaa5c0e.Emscripten.clang"
  },
  "schemaVersion": "3.4.7",
  "updatedAt": "2022-04-21T07:07:28.977Z",
  "networkType": "ethereum",
  "devdoc": {
    "kind": "dev",
    "methods": {},
    "version": 1
  },
  "userdoc": {
    "kind": "user",
    "methods": {},
    "version": 1
  }
}