{
  "contractName": "RLottery",
  "abi": [
    {
      "inputs": [
        {
          "internalType": "uint256",
          "name": "",
          "type": "uint256"
        }
      ],
      "name": "players",
      "outputs": [
        {
          "internalType": "uint256",
          "name": "num",
          "type": "uint256"
        }
      ],
      "stateMutability": "view",
      "type": "function",
      "constant": true
    },
    {
      "inputs": [
        {
          "internalType": "uint256",
          "name": "num",
          "type": "uint256"
        }
      ],
      "name": "getTickets",
      "outputs": [],
      "stateMutability": "payable",
      "type": "function",
      "payable": true
    },
    {
      "inputs": [],
      "name": "winner",
      "outputs": [
        {
          "internalType": "string",
          "name": "message",
          "type": "string"
        },
        {
          "internalType": "uint256",
          "name": "winnerNumber",
          "type": "uint256"
        }
      ],
      "stateMutability": "view",
      "type": "function",
      "constant": true
    }
  ],
  "bytecode": "0x608060405234801561001057600080fd5b506105d8806100206000396000f3fe6080604052600436106100345760003560e01c806314f2979f14610039578063dfbf53ae14610055578063f71d96cb14610081575b600080fd5b610053600480360381019061004e9190610233565b6100be565b005b34801561006157600080fd5b5061006a610133565b604051610078929190610308565b60405180910390f35b34801561008d57600080fd5b506100a860048036038101906100a39190610233565b6101da565b6040516100b59190610338565b60405180910390f35b600a811115610102576040517f08c379a00000000000000000000000000000000000000000000000000000000081526004016100f9906103c5565b60405180910390fd5b6040518060200160405280828152506000808381526020019081526020016000206000820151816000015590505050565b6060600080600a905060006001600942338560405160200161015793929190610480565b6040516020818303038152906040528051906020012060001c61017a91906104ec565b610184919061054c565b90506000600a8261019591906104ec565b9050806040518060400160405280600f81526020017f57696e6e65722773206e756d626572000000000000000000000000000000000081525090945094505050509091565b60006020528060005260406000206000915090508060000154905081565b600080fd5b6000819050919050565b610210816101fd565b811461021b57600080fd5b50565b60008135905061022d81610207565b92915050565b600060208284031215610249576102486101f8565b5b60006102578482850161021e565b91505092915050565b600081519050919050565b600082825260208201905092915050565b60005b8381101561029a57808201518184015260208101905061027f565b838111156102a9576000848401525b50505050565b6000601f19601f8301169050919050565b60006102cb82610260565b6102d5818561026b565b93506102e581856020860161027c565b6102ee816102af565b840191505092915050565b610302816101fd565b82525050565b6000604082019050818103600083015261032281856102c0565b905061033160208301846102f9565b9392505050565b600060208201905061034d60008301846102f9565b92915050565b7f313020706c6179657273206861766520616c7265616479206265656e2072656760008201527f6973746572656421000000000000000000000000000000000000000000000000602082015250565b60006103af60288361026b565b91506103ba82610353565b604082019050919050565b600060208201905081810360008301526103de816103a2565b9050919050565b6000819050919050565b6104006103fb826101fd565b6103e5565b82525050565b600073ffffffffffffffffffffffffffffffffffffffff82169050919050565b600061043182610406565b9050919050565b60008160601b9050919050565b600061045082610438565b9050919050565b600061046282610445565b9050919050565b61047a61047582610426565b610457565b82525050565b600061048c82866103ef565b60208201915061049c8285610469565b6014820191506104ac82846103ef565b602082019150819050949350505050565b7f4e487b7100000000000000000000000000000000000000000000000000000000600052601260045260246000fd5b60006104f7826101fd565b9150610502836101fd565b925082610512576105116104bd565b5b828206905092915050565b7f4e487b7100000000000000000000000000000000000000000000000000000000600052601160045260246000fd5b6000610557826101fd565b9150610562836101fd565b9250827fffffffffffffffffffffffffffffffffffffffffffffffffffffffffffffffff038211156105975761059661051d565b5b82820190509291505056fea2646970667358221220bd936186292aeaa3e3afbc77afd5706a2c4c019595851fd10b056360547d0f9f64736f6c634300080d0033",
  "immutableReferences": {},
  "source": "// SPDX-License-Identifier: MIT\npragma solidity >=0.4.22 <0.9.0;\n\ncontract RLottery {\n    struct Player {\n        uint256 num;\n    }\n    mapping(uint256 => Player) public players;\n\n    function getTickets(uint256 num) public payable {\n        require(num <= 10, \"10 players have already been registered!\");\n        players[num] = Player(num);\n    }\n\n    function winner()\n        public\n        view\n        returns (string memory message, uint256 winnerNumber)\n    {\n        uint256 lenght = 10;\n        uint256 randomNumber = (uint256(\n            keccak256(abi.encodePacked(block.timestamp, msg.sender, lenght))\n        ) % 9) + 1;\n        uint256 index = randomNumber % 10;\n        return (\"Winner's number\", index);\n    }\n}\n",
  "sourcePath": "/home/misha/blockchain/eth/week_one/SimpleGames/contracts/RLottery.sol",
  "compiler": {
    "name": "solc",
    "version": "0.8.13+commit.abaa5c0e.Emscripten.clang"
  },
  "schemaVersion": "3.4.7",
  "updatedAt": "2022-04-21T07:07:28.145Z",
  "networkType": "ethereum",
  "devdoc": {
    "kind": "dev",
    "methods": {},
    "version": 1
  },
  "userdoc": {
    "kind": "user",
    "methods": {},
    "version": 1
  }
}