{
  "contractName": "Address",
  "abi": [
    {
      "inputs": [
        {
          "internalType": "address",
          "name": "userAddress",
          "type": "address"
        }
      ],
      "name": "set",
      "outputs": [],
      "stateMutability": "nonpayable",
      "type": "function"
    },
    {
      "inputs": [
        {
          "internalType": "address",
          "name": "userAddress",
          "type": "address"
        }
      ],
      "name": "get",
      "outputs": [
        {
          "internalType": "uint256",
          "name": "index",
          "type": "uint256"
        }
      ],
      "stateMutability": "view",
      "type": "function",
      "constant": true
    },
    {
      "inputs": [],
      "name": "getAll",
      "outputs": [
        {
          "internalType": "address[]",
          "name": "users",
          "type": "address[]"
        }
      ],
      "stateMutability": "view",
      "type": "function",
      "constant": true
    }
  ],
  "bytecode": "0x608060405234801561001057600080fd5b50610562806100206000396000f3fe608060405234801561001057600080fd5b50600436106100415760003560e01c80632801617e1461004657806353ed514314610062578063c2bc2efc14610080575b600080fd5b610060600480360381019061005b9190610316565b6100b0565b005b61006a61011e565b6040516100779190610401565b60405180910390f35b61009a60048036038101906100959190610316565b610216565b6040516100a7919061043c565b60405180910390f35b80600080600154815260200190815260200160002060006101000a81548173ffffffffffffffffffffffffffffffffffffffff021916908373ffffffffffffffffffffffffffffffffffffffff1602179055506001600081548092919061011690610486565b919050555050565b6060600060015467ffffffffffffffff81111561013e5761013d6104ce565b5b60405190808252806020026020018201604052801561016c5781602001602082028036833780820191505090505b50905060005b600154811161020e5760008082815260200190815260200160002060009054906101000a900473ffffffffffffffffffffffffffffffffffffffff168282815181106101c1576101c06104fd565b5b602002602001019073ffffffffffffffffffffffffffffffffffffffff16908173ffffffffffffffffffffffffffffffffffffffff1681525050808061020690610486565b915050610172565b508091505090565b600080600090505b60015481116102a8578273ffffffffffffffffffffffffffffffffffffffff1660008083815260200190815260200160002060009054906101000a900473ffffffffffffffffffffffffffffffffffffffff1673ffffffffffffffffffffffffffffffffffffffff160361029557809150506102ae565b80806102a090610486565b91505061021e565b50600090505b919050565b600080fd5b600073ffffffffffffffffffffffffffffffffffffffff82169050919050565b60006102e3826102b8565b9050919050565b6102f3816102d8565b81146102fe57600080fd5b50565b600081359050610310816102ea565b92915050565b60006020828403121561032c5761032b6102b3565b5b600061033a84828501610301565b91505092915050565b600081519050919050565b600082825260208201905092915050565b6000819050602082019050919050565b610378816102d8565b82525050565b600061038a838361036f565b60208301905092915050565b6000602082019050919050565b60006103ae82610343565b6103b8818561034e565b93506103c38361035f565b8060005b838110156103f45781516103db888261037e565b97506103e683610396565b9250506001810190506103c7565b5085935050505092915050565b6000602082019050818103600083015261041b81846103a3565b905092915050565b6000819050919050565b61043681610423565b82525050565b6000602082019050610451600083018461042d565b92915050565b7f4e487b7100000000000000000000000000000000000000000000000000000000600052601160045260246000fd5b600061049182610423565b91507fffffffffffffffffffffffffffffffffffffffffffffffffffffffffffffffff82036104c3576104c2610457565b5b600182019050919050565b7f4e487b7100000000000000000000000000000000000000000000000000000000600052604160045260246000fd5b7f4e487b7100000000000000000000000000000000000000000000000000000000600052603260045260246000fdfea264697066735822122092feae45ae86ab9939ee5eaf5c2f1b513538429cbec1474b1b79919675d3003d64736f6c634300080d0033",
  "immutableReferences": {},
  "source": "// SPDX-License-Identifier: MIT\npragma solidity >=0.4.22 <0.9.0;\n\ncontract Address {\n    mapping(uint256 => address) addresses;\n\n    uint256 count;\n\n    function set(address userAddress) public {\n        addresses[count] = userAddress;\n        count++;\n    }\n\n    function get(address userAddress) public view returns (uint256 index) {\n        for (uint256 i = 0; i <= count; i++) {\n            if (addresses[i] == userAddress) {\n                return i;\n            }\n        }\n        return 0;\n    }\n\n    function getAll() public view returns (address[] memory users) {\n        address[] memory all = new address[](count);\n        for (uint256 i = 0; i <= count; i++) {\n            all[i] = addresses[i];\n        }\n        return all;\n    }\n}\n",
  "sourcePath": "/home/misha/blockchain/eth/week_one/SimpleData/contracts/Address.sol",
  "compiler": {
    "name": "solc",
    "version": "0.8.13+commit.abaa5c0e.Emscripten.clang"
  },
  "schemaVersion": "3.4.7",
  "updatedAt": "2022-04-19T07:53:55.552Z",
  "networkType": "ethereum",
  "devdoc": {
    "kind": "dev",
    "methods": {},
    "version": 1
  },
  "userdoc": {
    "kind": "user",
    "methods": {},
    "version": 1
  }
}