{
  "contractName": "Grades",
  "abi": [
    {
      "inputs": [
        {
          "internalType": "string",
          "name": "",
          "type": "string"
        }
      ],
      "name": "results",
      "outputs": [
        {
          "internalType": "uint256",
          "name": "amount",
          "type": "uint256"
        },
        {
          "internalType": "uint256",
          "name": "sum",
          "type": "uint256"
        },
        {
          "internalType": "uint256",
          "name": "average",
          "type": "uint256"
        }
      ],
      "stateMutability": "view",
      "type": "function",
      "constant": true
    },
    {
      "inputs": [
        {
          "internalType": "string",
          "name": "title",
          "type": "string"
        },
        {
          "internalType": "uint256",
          "name": "grade",
          "type": "uint256"
        }
      ],
      "name": "MyGrade",
      "outputs": [],
      "stateMutability": "nonpayable",
      "type": "function"
    }
  ],
  "bytecode": "0x608060405234801561001057600080fd5b50610639806100206000396000f3fe608060405234801561001057600080fd5b50600436106100365760003560e01c80634b13d17d1461003b578063feef49641461006d575b600080fd5b61005560048036038101906100509190610324565b610089565b60405161006493929190610386565b60405180910390f35b610087600480360381019061008291906103e9565b6100c9565b005b6000818051602081018201805184825260208301602085012081835280955050505050506000915090508060000154908060010154908060020154905083565b600181101580156100db575060058111155b6100e457600080fd5b6000826040516100f491906104bf565b9081526020016040518091039020600001600081548092919061011690610505565b91905055508060008360405161012c91906104bf565b9081526020016040518091039020600101600082825461014c919061054d565b9250508190555060008260405161016391906104bf565b90815260200160405180910390206000015460008360405161018591906104bf565b9081526020016040518091039020600101546101a191906105d2565b6000836040516101b191906104bf565b9081526020016040518091039020600201819055505050565b6000604051905090565b600080fd5b600080fd5b600080fd5b600080fd5b6000601f19601f8301169050919050565b7f4e487b7100000000000000000000000000000000000000000000000000000000600052604160045260246000fd5b610231826101e8565b810181811067ffffffffffffffff821117156102505761024f6101f9565b5b80604052505050565b60006102636101ca565b905061026f8282610228565b919050565b600067ffffffffffffffff82111561028f5761028e6101f9565b5b610298826101e8565b9050602081019050919050565b82818337600083830152505050565b60006102c76102c284610274565b610259565b9050828152602081018484840111156102e3576102e26101e3565b5b6102ee8482856102a5565b509392505050565b600082601f83011261030b5761030a6101de565b5b813561031b8482602086016102b4565b91505092915050565b60006020828403121561033a576103396101d4565b5b600082013567ffffffffffffffff811115610358576103576101d9565b5b610364848285016102f6565b91505092915050565b6000819050919050565b6103808161036d565b82525050565b600060608201905061039b6000830186610377565b6103a86020830185610377565b6103b56040830184610377565b949350505050565b6103c68161036d565b81146103d157600080fd5b50565b6000813590506103e3816103bd565b92915050565b60008060408385031215610400576103ff6101d4565b5b600083013567ffffffffffffffff81111561041e5761041d6101d9565b5b61042a858286016102f6565b925050602061043b858286016103d4565b9150509250929050565b600081519050919050565b600081905092915050565b60005b8381101561047957808201518184015260208101905061045e565b83811115610488576000848401525b50505050565b600061049982610445565b6104a38185610450565b93506104b381856020860161045b565b80840191505092915050565b60006104cb828461048e565b915081905092915050565b7f4e487b7100000000000000000000000000000000000000000000000000000000600052601160045260246000fd5b60006105108261036d565b91507fffffffffffffffffffffffffffffffffffffffffffffffffffffffffffffffff8203610542576105416104d6565b5b600182019050919050565b60006105588261036d565b91506105638361036d565b9250827fffffffffffffffffffffffffffffffffffffffffffffffffffffffffffffffff03821115610598576105976104d6565b5b828201905092915050565b7f4e487b7100000000000000000000000000000000000000000000000000000000600052601260045260246000fd5b60006105dd8261036d565b91506105e88361036d565b9250826105f8576105f76105a3565b5b82820490509291505056fea2646970667358221220796a558ada761cc8dc77496f84670f0f33e97bff1c1920d1aa6306185d674b1564736f6c634300080d0033",
  "immutableReferences": {},
  "source": "// SPDX-License-Identifier: MIT\npragma solidity >=0.4.22 <0.9.0;\n\ncontract Grades {\n    struct Calc {\n        uint256 amount;\n        uint256 sum;\n        uint256 average;\n    }\n\n    mapping(string => Calc) public results;\n\n    function MyGrade(string memory title, uint256 grade) public {\n        require(grade >= 1 && grade <= 5);\n        results[title].amount++;\n        results[title].sum += grade;\n        results[title].average = uint256(\n            results[title].sum / results[title].amount\n        );\n    }\n}\n",
  "sourcePath": "/home/misha/blockchain/eth/week_one/SimpleData/contracts/Grades.sol",
  "compiler": {
    "name": "solc",
    "version": "0.8.13+commit.abaa5c0e.Emscripten.clang"
  },
  "schemaVersion": "3.4.7",
  "updatedAt": "2022-04-19T07:53:55.347Z",
  "networkType": "ethereum",
  "devdoc": {
    "kind": "dev",
    "methods": {},
    "version": 1
  },
  "userdoc": {
    "kind": "user",
    "methods": {},
    "version": 1
  }
}