{
  "contractName": "NewNote",
  "abi": [
    {
      "inputs": [
        {
          "internalType": "string",
          "name": "",
          "type": "string"
        }
      ],
      "name": "users",
      "outputs": [
        {
          "internalType": "string",
          "name": "name",
          "type": "string"
        },
        {
          "internalType": "uint256",
          "name": "number",
          "type": "uint256"
        },
        {
          "internalType": "string",
          "name": "adress",
          "type": "string"
        }
      ],
      "stateMutability": "view",
      "type": "function",
      "constant": true
    },
    {
      "inputs": [
        {
          "internalType": "string",
          "name": "name",
          "type": "string"
        },
        {
          "internalType": "uint256",
          "name": "number",
          "type": "uint256"
        },
        {
          "internalType": "string",
          "name": "adress",
          "type": "string"
        }
      ],
      "name": "setUser",
      "outputs": [],
      "stateMutability": "nonpayable",
      "type": "function"
    },
    {
      "inputs": [
        {
          "internalType": "string",
          "name": "name",
          "type": "string"
        }
      ],
      "name": "getUser",
      "outputs": [
        {
          "internalType": "uint256",
          "name": "number",
          "type": "uint256"
        },
        {
          "internalType": "string",
          "name": "adress",
          "type": "string"
        }
      ],
      "stateMutability": "view",
      "type": "function",
      "constant": true
    }
  ],
  "bytecode": "0x608060405234801561001057600080fd5b50610872806100206000396000f3fe608060405234801561001057600080fd5b50600436106100415760003560e01c80631d7067711461004657806331feb67114610062578063689e1c0314610093575b600080fd5b610060600480360381019061005b91906105a9565b6100c5565b005b61007c60048036038101906100779190610634565b61014a565b60405161008a929190610714565b60405180910390f35b6100ad60048036038101906100a89190610634565b610226565b6040516100bc93929190610744565b60405180910390f35b6040518060600160405280848152602001838152602001828152506000846040516100f091906107c5565b9081526020016040518091039020600082015181600001908051906020019061011a929190610376565b50602082015181600101556040820151816002019080519060200190610141929190610376565b50905050505050565b6000606060008360405161015e91906107c5565b90815260200160405180910390206001015460008460405161018091906107c5565b908152602001604051809103902060020180805461019d9061080b565b80601f01602080910402602001604051908101604052809291908181526020018280546101c99061080b565b80156102165780601f106101eb57610100808354040283529160200191610216565b820191906000526020600020905b8154815290600101906020018083116101f957829003601f168201915b5050505050905091509150915091565b60008180516020810182018051848252602083016020850120818352809550505050505060009150905080600001805461025f9061080b565b80601f016020809104026020016040519081016040528092919081815260200182805461028b9061080b565b80156102d85780601f106102ad576101008083540402835291602001916102d8565b820191906000526020600020905b8154815290600101906020018083116102bb57829003601f168201915b5050505050908060010154908060020180546102f39061080b565b80601f016020809104026020016040519081016040528092919081815260200182805461031f9061080b565b801561036c5780601f106103415761010080835404028352916020019161036c565b820191906000526020600020905b81548152906001019060200180831161034f57829003601f168201915b5050505050905083565b8280546103829061080b565b90600052602060002090601f0160209004810192826103a457600085556103eb565b82601f106103bd57805160ff19168380011785556103eb565b828001600101855582156103eb579182015b828111156103ea5782518255916020019190600101906103cf565b5b5090506103f891906103fc565b5090565b5b808211156104155760008160009055506001016103fd565b5090565b6000604051905090565b600080fd5b600080fd5b600080fd5b600080fd5b6000601f19601f8301169050919050565b7f4e487b7100000000000000000000000000000000000000000000000000000000600052604160045260246000fd5b61048082610437565b810181811067ffffffffffffffff8211171561049f5761049e610448565b5b80604052505050565b60006104b2610419565b90506104be8282610477565b919050565b600067ffffffffffffffff8211156104de576104dd610448565b5b6104e782610437565b9050602081019050919050565b82818337600083830152505050565b6000610516610511846104c3565b6104a8565b90508281526020810184848401111561053257610531610432565b5b61053d8482856104f4565b509392505050565b600082601f83011261055a5761055961042d565b5b813561056a848260208601610503565b91505092915050565b6000819050919050565b61058681610573565b811461059157600080fd5b50565b6000813590506105a38161057d565b92915050565b6000806000606084860312156105c2576105c1610423565b5b600084013567ffffffffffffffff8111156105e0576105df610428565b5b6105ec86828701610545565b93505060206105fd86828701610594565b925050604084013567ffffffffffffffff81111561061e5761061d610428565b5b61062a86828701610545565b9150509250925092565b60006020828403121561064a57610649610423565b5b600082013567ffffffffffffffff81111561066857610667610428565b5b61067484828501610545565b91505092915050565b61068681610573565b82525050565b600081519050919050565b600082825260208201905092915050565b60005b838110156106c65780820151818401526020810190506106ab565b838111156106d5576000848401525b50505050565b60006106e68261068c565b6106f08185610697565b93506107008185602086016106a8565b61070981610437565b840191505092915050565b6000604082019050610729600083018561067d565b818103602083015261073b81846106db565b90509392505050565b6000606082019050818103600083015261075e81866106db565b905061076d602083018561067d565b818103604083015261077f81846106db565b9050949350505050565b600081905092915050565b600061079f8261068c565b6107a98185610789565b93506107b98185602086016106a8565b80840191505092915050565b60006107d18284610794565b915081905092915050565b7f4e487b7100000000000000000000000000000000000000000000000000000000600052602260045260246000fd5b6000600282049050600182168061082357607f821691505b602082108103610836576108356107dc565b5b5091905056fea264697066735822122027ea648935f788e4970f9b6465162591c245af66fd9613f672f6366390a3412d64736f6c634300080d0033",
  "immutableReferences": {},
  "source": "// SPDX-License-Identifier: MIT\npragma solidity >=0.4.22 <0.9.0;\n\ncontract NewNote {\n    struct user {\n        string name;\n        uint256 number;\n        string adress;\n    }\n    mapping(string => user) public users;\n\n    function setUser(\n        string memory name,\n        uint256 number,\n        string memory adress\n    ) public {\n        users[name] = user(name, number, adress);\n    }\n\n    function getUser(string memory name)\n        public\n        view\n        returns (uint256 number, string memory adress)\n    {\n        return (users[name].number, users[name].adress);\n    }\n}\n",
  "sourcePath": "/home/misha/blockchain/eth/week_one/SimpleData/contracts/NewNote.sol",
  "compiler": {
    "name": "solc",
    "version": "0.8.13+commit.abaa5c0e.Emscripten.clang"
  },
  "schemaVersion": "3.4.7",
  "updatedAt": "2022-04-19T07:53:54.910Z",
  "networkType": "ethereum",
  "devdoc": {
    "kind": "dev",
    "methods": {},
    "version": 1
  },
  "userdoc": {
    "kind": "user",
    "methods": {},
    "version": 1
  }
}