{
  "contractName": "Owner",
  "abi": [
    {
      "inputs": [],
      "stateMutability": "nonpayable",
      "type": "constructor"
    },
    {
      "inputs": [
        {
          "internalType": "string",
          "name": "",
          "type": "string"
        }
      ],
      "name": "users",
      "outputs": [
        {
          "internalType": "string",
          "name": "name",
          "type": "string"
        },
        {
          "internalType": "uint256",
          "name": "number",
          "type": "uint256"
        },
        {
          "internalType": "string",
          "name": "adress",
          "type": "string"
        }
      ],
      "stateMutability": "view",
      "type": "function",
      "constant": true
    },
    {
      "inputs": [
        {
          "internalType": "string",
          "name": "name",
          "type": "string"
        },
        {
          "internalType": "uint256",
          "name": "number",
          "type": "uint256"
        },
        {
          "internalType": "string",
          "name": "adress",
          "type": "string"
        }
      ],
      "name": "setUser",
      "outputs": [],
      "stateMutability": "nonpayable",
      "type": "function"
    },
    {
      "inputs": [
        {
          "internalType": "string",
          "name": "name",
          "type": "string"
        }
      ],
      "name": "getUser",
      "outputs": [
        {
          "internalType": "uint256",
          "name": "number",
          "type": "uint256"
        },
        {
          "internalType": "string",
          "name": "adress",
          "type": "string"
        }
      ],
      "stateMutability": "view",
      "type": "function",
      "constant": true
    }
  ],
  "bytecode": "0x608060405234801561001057600080fd5b50336000806101000a81548173ffffffffffffffffffffffffffffffffffffffff021916908373ffffffffffffffffffffffffffffffffffffffff1602179055506109fa806100606000396000f3fe608060405234801561001057600080fd5b50600436106100415760003560e01c80631d7067711461004657806331feb67114610062578063689e1c0314610093575b600080fd5b610060600480360381019061005b91906106c5565b6100c5565b005b61007c60048036038101906100779190610750565b6101d8565b60405161008a929190610830565b60405180910390f35b6100ad60048036038101906100a89190610750565b610342565b6040516100bc93929190610860565b60405180910390f35b60008054906101000a900473ffffffffffffffffffffffffffffffffffffffff1673ffffffffffffffffffffffffffffffffffffffff163373ffffffffffffffffffffffffffffffffffffffff1614610153576040517f08c379a000000000000000000000000000000000000000000000000000000000815260040161014a906108f1565b60405180910390fd5b60405180606001604052808481526020018381526020018281525060018460405161017e919061094d565b908152602001604051809103902060008201518160000190805190602001906101a8929190610492565b506020820151816001015560408201518160020190805190602001906101cf929190610492565b50905050505050565b6000606060008054906101000a900473ffffffffffffffffffffffffffffffffffffffff1673ffffffffffffffffffffffffffffffffffffffff163373ffffffffffffffffffffffffffffffffffffffff161461026a576040517f08c379a0000000000000000000000000000000000000000000000000000000008152600401610261906108f1565b60405180910390fd5b60018360405161027a919061094d565b90815260200160405180910390206001015460018460405161029c919061094d565b90815260200160405180910390206002018080546102b990610993565b80601f01602080910402602001604051908101604052809291908181526020018280546102e590610993565b80156103325780601f1061030757610100808354040283529160200191610332565b820191906000526020600020905b81548152906001019060200180831161031557829003601f168201915b5050505050905091509150915091565b60018180516020810182018051848252602083016020850120818352809550505050505060009150905080600001805461037b90610993565b80601f01602080910402602001604051908101604052809291908181526020018280546103a790610993565b80156103f45780601f106103c9576101008083540402835291602001916103f4565b820191906000526020600020905b8154815290600101906020018083116103d757829003601f168201915b50505050509080600101549080600201805461040f90610993565b80601f016020809104026020016040519081016040528092919081815260200182805461043b90610993565b80156104885780601f1061045d57610100808354040283529160200191610488565b820191906000526020600020905b81548152906001019060200180831161046b57829003601f168201915b5050505050905083565b82805461049e90610993565b90600052602060002090601f0160209004810192826104c05760008555610507565b82601f106104d957805160ff1916838001178555610507565b82800160010185558215610507579182015b828111156105065782518255916020019190600101906104eb565b5b5090506105149190610518565b5090565b5b80821115610531576000816000905550600101610519565b5090565b6000604051905090565b600080fd5b600080fd5b600080fd5b600080fd5b6000601f19601f8301169050919050565b7f4e487b7100000000000000000000000000000000000000000000000000000000600052604160045260246000fd5b61059c82610553565b810181811067ffffffffffffffff821117156105bb576105ba610564565b5b80604052505050565b60006105ce610535565b90506105da8282610593565b919050565b600067ffffffffffffffff8211156105fa576105f9610564565b5b61060382610553565b9050602081019050919050565b82818337600083830152505050565b600061063261062d846105df565b6105c4565b90508281526020810184848401111561064e5761064d61054e565b5b610659848285610610565b509392505050565b600082601f83011261067657610675610549565b5b813561068684826020860161061f565b91505092915050565b6000819050919050565b6106a28161068f565b81146106ad57600080fd5b50565b6000813590506106bf81610699565b92915050565b6000806000606084860312156106de576106dd61053f565b5b600084013567ffffffffffffffff8111156106fc576106fb610544565b5b61070886828701610661565b9350506020610719868287016106b0565b925050604084013567ffffffffffffffff81111561073a57610739610544565b5b61074686828701610661565b9150509250925092565b6000602082840312156107665761076561053f565b5b600082013567ffffffffffffffff81111561078457610783610544565b5b61079084828501610661565b91505092915050565b6107a28161068f565b82525050565b600081519050919050565b600082825260208201905092915050565b60005b838110156107e25780820151818401526020810190506107c7565b838111156107f1576000848401525b50505050565b6000610802826107a8565b61080c81856107b3565b935061081c8185602086016107c4565b61082581610553565b840191505092915050565b60006040820190506108456000830185610799565b818103602083015261085781846107f7565b90509392505050565b6000606082019050818103600083015261087a81866107f7565b90506108896020830185610799565b818103604083015261089b81846107f7565b9050949350505050565b7f4e6f74206f776e65720000000000000000000000000000000000000000000000600082015250565b60006108db6009836107b3565b91506108e6826108a5565b602082019050919050565b6000602082019050818103600083015261090a816108ce565b9050919050565b600081905092915050565b6000610927826107a8565b6109318185610911565b93506109418185602086016107c4565b80840191505092915050565b6000610959828461091c565b915081905092915050565b7f4e487b7100000000000000000000000000000000000000000000000000000000600052602260045260246000fd5b600060028204905060018216806109ab57607f821691505b6020821081036109be576109bd610964565b5b5091905056fea26469706673582212208292282b2ff4754678d1727aa24469aaa60c0a3148b0b4d1f785099cf78910cd64736f6c634300080d0033",
  "immutableReferences": {},
  "source": "// SPDX-License-Identifier: MIT\npragma solidity >=0.4.22 <0.9.0;\n\ncontract Owner {\n    address owner;\n\n    constructor() {\n        owner = msg.sender;\n    }\n\n    struct user {\n        string name;\n        uint256 number;\n        string adress;\n    }\n\n    mapping(string => user) public users;\n\n    function setUser(\n        string memory name,\n        uint256 number,\n        string memory adress\n    ) public {\n        require(msg.sender == owner, \"Not owner\");\n        users[name] = user(name, number, adress);\n    }\n\n    function getUser(string memory name)\n        public\n        view\n        returns (uint256 number, string memory adress)\n    {\n        require(msg.sender == owner, \"Not owner\");\n        return (users[name].number, users[name].adress);\n    }\n}\n",
  "sourcePath": "/home/misha/blockchain/eth/week_one/SimpleData/contracts/Owner.sol",
  "compiler": {
    "name": "solc",
    "version": "0.8.13+commit.abaa5c0e.Emscripten.clang"
  },
  "schemaVersion": "3.4.7",
  "updatedAt": "2022-04-19T07:53:55.139Z",
  "networkType": "ethereum",
  "devdoc": {
    "kind": "dev",
    "methods": {},
    "version": 1
  },
  "userdoc": {
    "kind": "user",
    "methods": {},
    "version": 1
  }
}