{
  "contractName": "Voter",
  "abi": [
    {
      "anonymous": false,
      "inputs": [
        {
          "indexed": true,
          "internalType": "uint256",
          "name": "candidateId",
          "type": "uint256"
        }
      ],
      "name": "votedEvent",
      "type": "event"
    },
    {
      "inputs": [
        {
          "internalType": "uint256",
          "name": "",
          "type": "uint256"
        }
      ],
      "name": "candidates",
      "outputs": [
        {
          "internalType": "uint256",
          "name": "id",
          "type": "uint256"
        },
        {
          "internalType": "string",
          "name": "name",
          "type": "string"
        },
        {
          "internalType": "uint256",
          "name": "totalVotes",
          "type": "uint256"
        }
      ],
      "stateMutability": "view",
      "type": "function",
      "constant": true
    },
    {
      "inputs": [
        {
          "internalType": "string",
          "name": "newName",
          "type": "string"
        }
      ],
      "name": "addCandidate",
      "outputs": [],
      "stateMutability": "nonpayable",
      "type": "function"
    },
    {
      "inputs": [
        {
          "internalType": "uint256",
          "name": "candidateId",
          "type": "uint256"
        }
      ],
      "name": "vote",
      "outputs": [],
      "stateMutability": "nonpayable",
      "type": "function"
    }
  ],
  "bytecode": "0x608060405234801561001057600080fd5b50610793806100206000396000f3fe608060405234801561001057600080fd5b50600436106100415760003560e01c80630121b93f146100465780633477ee2e14610062578063462e91ec14610094575b600080fd5b610060600480360381019061005b91906103f5565b6100b0565b005b61007c600480360381019061007791906103f5565b6101d4565b60405161008b939291906104ca565b60405180910390f35b6100ae60048036038101906100a9919061063d565b610286565b005b6000803373ffffffffffffffffffffffffffffffffffffffff1673ffffffffffffffffffffffffffffffffffffffff16815260200190815260200160002060009054906101000a900460ff161561010657600080fd5b60008111801561011857506002548111155b61012157600080fd5b60016000803373ffffffffffffffffffffffffffffffffffffffff1673ffffffffffffffffffffffffffffffffffffffff16815260200190815260200160002060006101000a81548160ff02191690831515021790555060016000828152602001908152602001600020600201600081548092919061019f906106b5565b9190505550807ffff3c900d938d21d0990d786e819f29b8d05c1ef587b462b939609625b684b1660405160405180910390a250565b60016020528060005260406000206000915090508060000154908060010180546101fd9061072c565b80601f01602080910402602001604051908101604052809291908181526020018280546102299061072c565b80156102765780601f1061024b57610100808354040283529160200191610276565b820191906000526020600020905b81548152906001019060200180831161025957829003601f168201915b5050505050908060020154905083565b60026000815480929190610299906106b5565b91905055506040518060600160405280600254815260200182815260200160008152506001600060025481526020019081526020016000206000820151816000015560208201518160010190805190602001906102f7929190610308565b506040820151816002015590505050565b8280546103149061072c565b90600052602060002090601f016020900481019282610336576000855561037d565b82601f1061034f57805160ff191683800117855561037d565b8280016001018555821561037d579182015b8281111561037c578251825591602001919060010190610361565b5b50905061038a919061038e565b5090565b5b808211156103a757600081600090555060010161038f565b5090565b6000604051905090565b600080fd5b600080fd5b6000819050919050565b6103d2816103bf565b81146103dd57600080fd5b50565b6000813590506103ef816103c9565b92915050565b60006020828403121561040b5761040a6103b5565b5b6000610419848285016103e0565b91505092915050565b61042b816103bf565b82525050565b600081519050919050565b600082825260208201905092915050565b60005b8381101561046b578082015181840152602081019050610450565b8381111561047a576000848401525b50505050565b6000601f19601f8301169050919050565b600061049c82610431565b6104a6818561043c565b93506104b681856020860161044d565b6104bf81610480565b840191505092915050565b60006060820190506104df6000830186610422565b81810360208301526104f18185610491565b90506105006040830184610422565b949350505050565b600080fd5b600080fd5b7f4e487b7100000000000000000000000000000000000000000000000000000000600052604160045260246000fd5b61054a82610480565b810181811067ffffffffffffffff8211171561056957610568610512565b5b80604052505050565b600061057c6103ab565b90506105888282610541565b919050565b600067ffffffffffffffff8211156105a8576105a7610512565b5b6105b182610480565b9050602081019050919050565b82818337600083830152505050565b60006105e06105db8461058d565b610572565b9050828152602081018484840111156105fc576105fb61050d565b5b6106078482856105be565b509392505050565b600082601f83011261062457610623610508565b5b81356106348482602086016105cd565b91505092915050565b600060208284031215610653576106526103b5565b5b600082013567ffffffffffffffff811115610671576106706103ba565b5b61067d8482850161060f565b91505092915050565b7f4e487b7100000000000000000000000000000000000000000000000000000000600052601160045260246000fd5b60006106c0826103bf565b91507fffffffffffffffffffffffffffffffffffffffffffffffffffffffffffffffff82036106f2576106f1610686565b5b600182019050919050565b7f4e487b7100000000000000000000000000000000000000000000000000000000600052602260045260246000fd5b6000600282049050600182168061074457607f821691505b602082108103610757576107566106fd565b5b5091905056fea26469706673582212201e164bb9031727f36be710eed0560b8a66b73a71ff6bb53e30040f948e6932f864736f6c634300080d0033",
  "immutableReferences": {},
  "source": "// SPDX-License-Identifier: MIT\npragma solidity >=0.4.22 <0.9.0;\n\ncontract Voter {\n    struct Candidate {\n        uint256 id;\n        string name;\n        uint256 totalVotes;\n    }\n\n    mapping(address => bool) private voters;\n\n    mapping(uint256 => Candidate) public candidates;\n\n    uint256 private count;\n\n    event votedEvent(uint256 indexed candidateId);\n\n    function addCandidate(string memory newName) public {\n        count++;\n        candidates[count] = Candidate(count, newName, 0);\n    }\n\n    function vote(uint256 candidateId) public {\n        require(!voters[msg.sender]);\n        require(candidateId > 0 && candidateId <= count);\n        voters[msg.sender] = true;\n        candidates[candidateId].totalVotes++;\n        emit votedEvent(candidateId);\n    }\n}\n",
  "sourcePath": "/home/misha/blockchain/eth/week_one/SimpleData/contracts/Voter.sol",
  "compiler": {
    "name": "solc",
    "version": "0.8.13+commit.abaa5c0e.Emscripten.clang"
  },
  "schemaVersion": "3.4.7",
  "updatedAt": "2022-04-19T08:13:59.763Z",
  "networkType": "ethereum",
  "devdoc": {
    "kind": "dev",
    "methods": {},
    "version": 1
  },
  "userdoc": {
    "kind": "user",
    "methods": {},
    "version": 1
  }
}