{
  "contractName": "Calculator",
  "abi": [
    {
      "inputs": [
        {
          "internalType": "uint256",
          "name": "x",
          "type": "uint256"
        },
        {
          "internalType": "bytes32",
          "name": "oper",
          "type": "bytes32"
        },
        {
          "internalType": "uint256",
          "name": "y",
          "type": "uint256"
        }
      ],
      "name": "getCalc",
      "outputs": [
        {
          "internalType": "uint256",
          "name": "result",
          "type": "uint256"
        }
      ],
      "stateMutability": "pure",
      "type": "function",
      "constant": true
    }
  ],
  "bytecode": "0x608060405234801561001057600080fd5b506103ed806100206000396000f3fe608060405234801561001057600080fd5b506004361061002b5760003560e01c80631afe2da214610030575b600080fd5b61004a600480360381019061004591906101c7565b610060565b6040516100579190610229565b60405180910390f35b60007f2b00000000000000000000000000000000000000000000000000000000000000830361009c5781846100959190610273565b905061014f565b7f2d0000000000000000000000000000000000000000000000000000000000000083036100d65781846100cf91906102c9565b905061014f565b7f2a00000000000000000000000000000000000000000000000000000000000000830361011057818461010991906102fd565b905061014f565b7f2f00000000000000000000000000000000000000000000000000000000000000830361014a5781846101439190610386565b905061014f565b600090505b9392505050565b600080fd5b6000819050919050565b61016e8161015b565b811461017957600080fd5b50565b60008135905061018b81610165565b92915050565b6000819050919050565b6101a481610191565b81146101af57600080fd5b50565b6000813590506101c18161019b565b92915050565b6000806000606084860312156101e0576101df610156565b5b60006101ee8682870161017c565b93505060206101ff868287016101b2565b92505060406102108682870161017c565b9150509250925092565b6102238161015b565b82525050565b600060208201905061023e600083018461021a565b92915050565b7f4e487b7100000000000000000000000000000000000000000000000000000000600052601160045260246000fd5b600061027e8261015b565b91506102898361015b565b9250827fffffffffffffffffffffffffffffffffffffffffffffffffffffffffffffffff038211156102be576102bd610244565b5b828201905092915050565b60006102d48261015b565b91506102df8361015b565b9250828210156102f2576102f1610244565b5b828203905092915050565b60006103088261015b565b91506103138361015b565b9250817fffffffffffffffffffffffffffffffffffffffffffffffffffffffffffffffff048311821515161561034c5761034b610244565b5b828202905092915050565b7f4e487b7100000000000000000000000000000000000000000000000000000000600052601260045260246000fd5b60006103918261015b565b915061039c8361015b565b9250826103ac576103ab610357565b5b82820490509291505056fea26469706673582212208f1da70648a41c42d9d809b3753d4e5bb44825c5edb89c62980fcd5a3ff1533a64736f6c634300080d0033",
  "immutableReferences": {},
  "source": "// SPDX-License-Identifier: MIT\npragma solidity >=0.4.22 <0.9.0;\n\ncontract Calculator {\n    function getCalc(\n        uint256 x,\n        bytes32 oper,\n        uint256 y\n    ) public pure returns (uint256 result) {\n        if (oper == \"+\") return x + y;\n        if (oper == \"-\") return x - y;\n        if (oper == \"*\") return x * y;\n        if (oper == \"/\") return x / y;\n        return 0;\n    }\n}\n",
  "sourcePath": "/home/misha/blockchain/eth/week_one/SimpleContracts/contracts/Calculator.sol",
  "compiler": {
    "name": "solc",
    "version": "0.8.13+commit.abaa5c0e.Emscripten.clang"
  },
  "schemaVersion": "3.4.7",
  "updatedAt": "2022-04-19T06:09:49.981Z",
  "networkType": "ethereum",
  "devdoc": {
    "kind": "dev",
    "methods": {},
    "version": 1
  },
  "userdoc": {
    "kind": "user",
    "methods": {},
    "version": 1
  }
}